:020000040800F2
:10000000D85A0020311B00080519000807190008FC
:100010000B1900080F190008131900080000000050
:100020000000000000000000000000001719000898
:1000300019190008000000001B1900081D1900080C
:100040004B1B00084B1B00084B1B00084B1B0008F8
:100050004B1B00084B1B00084B1B00084B1B0008E8
:100060004B1B00084B1B00084B1B00084B1B0008D8
:100070004B1B00084B1B00084B1B00084B1B0008C8
:100080004B1B00084B1B00084B1B00084B1B0008B8
:100090004B1B00084B1B00084B1B00084B1B0008A8
:1000A0004B1B00084B1B00084B1B00084B1B000898
:1000B0004B1B00084B1B00084B1B00084B1B000888
:1000C0004B1B00084B1B00084B1B00084B1B000878
:1000D0004B1B0008994200081143000873430008B5
:1000E0004B1B00084B1B00084B1B00084B1B000858
:1000F0004B1B00084B1B00084B1B00084B1B000848
:100100004B1B00084B1B00084B1B00084B1B000837
:100110002D4800084B1B00084B1B00083515000834
:100120004B1B00084B1B00084B1B00084B1B000817
:100130004B1B00084B1B00084B1B00084B1B000807
:100140004B1B00084B1B00084B1B00084B1B0008F7
:100150004B1B00084B1B00084B1B0008A74800085E
:100160004B1B00084B1B00084B1B00084B1B0008D7
:100170004B1B00084B1B00084B1B00084B1B0008C7
:100180004B1B00084B1B000800F002F800F045F87C
:100190000AA090E8000C82448344AAF10107DA45E2
:1001A00001D100F03AF8AFF2090EBAE80F0013F0EF
:1001B000010F18BFFB1A43F001031847E453000076
:1001C00004540000103A24BF78C878C1FAD8520706
:1001D00024BF30C830C144BF04680C6070470000C1
:1001E0000023002400250026103A28BF78C1FBD840
:1001F000520728BF30C148BF0B6070471FB505F0DC
:10020000A5F905F041F904000020002105F088F966
:10021000401C60601FBD10B510BD05F0F9F8114617
:10022000FFF7ECFF00F0F7FE05F020F903B4FFF74D
:10023000F2FF03BC05F06CF970B505460C4645F2BB
:10024000555002F099F9284602F099F9204602F03B
:1002500099F902F09AF902F09DF970BD10B502F01B
:1002600094F910BD0020FE490870FE490880FE493F
:100270000870FE49088070470120FB490870002083
:10028000FA490880F74908800120F549087070474D
:100290000020F3494870F3494880F3494870F34916
:1002A000488070470120F04948700020EF4948809D
:1002B000EC4948800120EA49487070470020E8492D
:1002C0008870E8498880E8498870E84988807047E4
:1002D0000120E54988700020E4498880E149888050
:1002E0000120DF498870704710B5E14A4FF4AF71C3
:1002F000E04804F0B0FC10BD10B5FFF7AFFF72B6D8
:10030000DC4804F07BFB044604F0D3FBD84A4FF4EE
:10031000AF71D84804F06AFC62B6FFF79FFF10BDCA
:100320002DE9F04107460D4690461E4600240DE09B
:1003300004EB440005EB40014246384604F072FDF0
:1003400010B92046BDE8F081601CC4B2B442EFDBB6
:100350004FF0FF30F6E710B5C7488078E2287DD02F
:1003600003DC38B1D1287AD106E1F02803D0F32894
:10037000F9D1ADE006E1C148BF490A6802600979D8
:100380000171401DBE490A68026089888180BA48AF
:10039000C07AFF283CD100241AE004EB4400B9499C
:1003A00011F8100090B104EB440001EB4000B34998
:1003B0000B3102680A6080888880FF200B394874FE
:1003C0008874C8741421AD4803F013FF601CC4B2D4
:1003D000AD484078A042E0DCFFF75AFF0020AB496F
:1003E0004870AB490870AB494870AB494870A649A2
:1003F0004870A2480B30002101608180FF209F4996
:1004000048748874C87414219C4803F0F2FE5EE0BE
:100410009A490B319848401D02680A6042684A6058
:10042000007A08729C48407800284CDD9648437852
:10043000062294499048401DFFF772FF0446601C55
:1004400000283FD094484078401E934948701421BA
:100450008A4803F0CEFE04EB440001E072E090E035
:10046000884901EB40000021016081808A48407882
:1004700040BB4FF40051894802F036F80A2003F0DF
:10048000A7FC4FF40051854802F030F8322003F009
:100490009FFCFFF7FDFE00207C4948707C490870F6
:1004A0007C4948707849487074480B3000210160DD
:1004B0008180FF20714948748874C87414216F4882
:1004C00003F097FE03E014216C4803F092FE59E01C
:1004D0006948C07AFF2814D171484078012830D18A
:1004E00019207049488000206D49487001206E49EC
:1004F000487000206D4948805C4948806C494880BC
:100500001FE0FFF7C5FE0020604948706049087091
:100510005A4859490A68026009790171401D5849D1
:100520000A68026089888180811D5348401D0268E5
:100530000A6082888A808079887112214F4803F08E
:1005400058FE1FE04D484C490A6802600979017164
:10055000401D4B490A68026089888180801D464998
:10056000491D0A6802608A88828089798171122116
:100570000B3803F03EFE05E00C213F4803F039FE46
:1005800000E000BF00BF10BD704710B5FFF766FE6A
:1005900048488078E4285FD005DC48B1D1285CD099
:1005A000E3285BD1F9E1F02803D0F328F9D126E163
:1005B00020E24148008848F2100188424FD1334878
:1005C0000078012817D126480078A0B901203149C8
:1005D00008703848C07B3749487138480A6802605B
:1005E00089888180062103F02BFEFFF745FE142049
:1005F0002C49088002E125484078012817D1184885
:100600004078A0B90120234948702A48C07B294975
:1006100048712B480A68026089888180062103F0AE
:10062000BCFDFFF73FFE14201E494880E6E0174856
:1006300080780128DED10A4880780028DAD10120AC
:10064000144988701B48C07B1A4948711D480A68C4
:1006500002608988818037E03BE139E1C4E13CE018
:100660002500002032000020280000202C0000205F
:10067000B407002000C00008F8400020CC40002053
:100680001100002004030020030000204E00002081
:100690001E00002006000020000000200004024090
:1006A00022000020380000204400002048000020E4
:1006B0003E0000205C410020A40000201209002020
:1006C0009E1B00202A2E0020062103F0CFFDFFF7FD
:1006D000FFFD1420F849888090E0F8480078012850
:1006E0002BD1F748007840BBF648007900280FDD91
:1006F000F4480079F4490870F4490870F148007929
:1007000000EB40004200EF490F31F14804F0B6FB26
:100710000120F0490870EB48C07BEA494871EE4877
:100720000A68026089888180062103F089FDFFF74D
:10073000A3FD1420E049088060E0E04840780128EB
:100740002BD1DF48407840BBDE48007900280FDD20
:10075000DC480079DC494870DC494870D9480079A8
:1007600000EB40004200D7490F31DC4804F086FB23
:100770000120D8494870D348C07BD2494871D84835
:100780000A68026089888180062103F006FDFFF770
:1007900089FD1420C849488030E0C8488078012885
:1007A0002CD1C748807848BBC6480079002811DDA5
:1007B000C4480079C449887008468078C349887065
:1007C000C048007900EB40004200BE490F31C548E7
:1007D00004F054FB0120BF498870BA48C07BB94976
:1007E0004871C1480A68026089888180062103F047
:1007F0003DFDFFF76DFD1420AF498880FAE0BB484E
:10080000008849F29621884261D1AC4800780128DD
:100810001CD1AB480078C8B9AF48AA490A68026041
:100820000979017141F28722A6490F31401D04F078
:1008300025FB0C21A84803F003FD0120AC490870FA
:10084000FFF71AFD32209C49088040E09B48407821
:1008500001281CD19A484078C8B9A14899490A682A
:1008600002600979017141F2872296490F31401DDA
:1008700004F004FB0C219A4803F08FFC01209C49F2
:100880004870FFF70FFD32208B4948801FE08B48EE
:10089000807801281BD18A488078C0B9924889495C
:1008A0000A6802600979017141F2872285490F3196
:1008B000401D04F0E3FA0C218B4803F0D7FC012023
:1008C0008B498870FFF704FD32207B49888091E0D6
:1008D00090E07C48C07A012805D100208549087045
:1008E0008549088058E000208449087081490870D3
:1008F00081490880FFF7B2FC76480078012812D1C0
:1009000000207449087004217D4801F0EDFD0A20A3
:1009100003F05EFA04217A4801F0E8FD502003F06C
:1009200057FAFFF79FFC6B484078012814D100204C
:10093000684948704FF40051724801F0D5FD0A2013
:1009400003F046FA4FF400516E4801F0CFFD5020FD
:1009500003F03EFAFFF79CFC5E488078012814D132
:1009600000205C4988704FF48051664801F0BCFD5E
:100970000A2003F02DFA4FF48051624801F0B6FDD1
:10098000502003F025FAFFF799FC00204D49C8726A
:100990000C214C4803F02DFC2CE00421584801F0B8
:1009A000A3FD4FF40051574801F09EFD4FF48051D4
:1009B000544801F099FD0A2003F00AFA0421504836
:1009C00001F094FD4FF400514E4801F08FFD4FF4BB
:1009D00080514C4801F08AFD0A2003F0F9F901200A
:1009E00000F05FFF00F062FF41F29621354804F00D
:1009F000BCFA00BF00BF10BD10B543488078E228A4
:100A000057D003DC38B1D12854D138E1F02803D0D5
:100A1000F328F9D1DBE039E13C483B490A68026040
:100A200009790171401D3A490A680260898881800C
:100A30003548C07AFF286FD100241AE004EB440047
:100A4000234911F8100090B104EB440001EB400081
:100A50002E490B3102680A6080888880FF200B399C
:100A600048748874C8741421284803F0C2FB601CC1
:100A7000C4B216480078A042E0DCFFF7F3FB002088
:100A80000E49087023490870124908700E49087011
:100A90000E4908701D480B30002101608180FF2045
:100AA0001A4948748874C8741421184803F0A1FBCB
:100AB0008CE0C9E0E4E02FE0380000204E00002088
:100AC000250000205C4100200000002003000020E1
:100AD000AC000020060000201209002004030020C2
:100AE0009E1B00205C0500202A2E0020A400002070
:100AF000220000200C0000200A0000200900002035
:100B00000010024000040240F2530020B6400020D2
:100B1000110000201E000020FD49FE4802680A6006
:100B200042684A60007A0872FB480078002848DD75
:100B3000FA4803780622FA49F648FFF7F1FB044623
:100B4000601C00283CD0F4480078401EF249087030
:100B50001421EF480B3803F04CFB04EB4400F04940
:100B600001EB4000002101608180EB48007838BB38
:100B70000421EC4801F0B8FC0A2003F029F9042113
:100B8000E84801F0B3FC322003F022F9FFF76AFBDA
:100B90000020E5490870E5490870E5490870DF491B
:100BA0000870DB48002101608180FF20D8490B39A3
:100BB00048748874C8741421D5480B3803F019FBA5
:100BC00004E01421D2480B3803F013FB5EE0D14857
:100BD000401FC07AFF2814D1D6480078012832D1AE
:100BE0001920D54908800020D24908700120D34936
:100BF00008700020D2490880D2490880D249088074
:100C000021E0FFF72FFB0020C7490870C749087093
:100C1000BF480B38BF49491F0A6802600979017152
:100C2000401DCA490A68026089888180811DB948CF
:100C300002680A6082888A80807988711221B448AB
:100C40000B3803F0D6FA21E0B1480B38B149491FFF
:100C50000A68026009790171401DBC490A68026096
:100C600089888180801DAB490A6802608A888280F9
:100C70008979817112210B3803F0BBFA06E005E097
:100C80003221A448401F04F070F900BF00BF10BD1E
:100C900010B5AF488078E2287ED003DC38B1D12887
:100CA0007BD102E1F02803D0F328F9D1A9E0FEE0DE
:100CB000A848A7490A68026009790171401DA34943
:100CC0000A68026089888180A148C07AFF2838D1EB
:100CD00000241AE004EB44009F4911F8100090B181
:100CE00004EB440001EB40009A490B3102680A60B2
:100CF00080888880FF200B3948748874C874142158
:100D0000944803F076FA601CC4B284488078A0420C
:100D1000E0DCFFF7D3FA002083498870834908702C
:100D20008349C8708B480B30002101608180FF200F
:100D3000884948748874C8741421864803F059FAA5
:100D40005EE084480B308249491D0A6802604A68A7
:100D50004260097A01727048807800284CDD6F4843
:100D6000837806227C497A48401DFFF7D9FA044669
:100D7000601C00283FD068488078401E6649887013
:100D80001421744803F035FA04EB4400724901EB76
:100D900040000021016001E06DE087E081805E4855
:100DA000807840BB4FF480516C4801F09DFB0A20D5
:100DB00003F00EF84FF48051684801F097FB3220A1
:100DC00003F006F8FFF77AFA002057498870574970
:100DD000087057498870514988705E480B3000216F
:100DE00001608180FF205B4948748874C8741421B5
:100DF000584803F0FEF903E01421564803F0F9F9CE
:100E000055E05348C07AFF2814D14A488078012819
:100E100030D1192048498880002046498870012037
:100E2000464988700020464988804649888046495E
:100E300088801FE0FFF742FA00203B4988703B4959
:100E40000870444842490A68026009790171401DEE
:100E50003E490A68026089888180801D3C49491D9D
:100E60000A6802608A8882808979817112210B3830
:100E700003F0BFF91BE0374835490A680260097979
:100E80000171401D31490A68026089888180801D96
:100E90002F49491D0A6802608A8882808979817198
:100EA00012210B3803F0A5F901E000E000BF00BFFC
:100EB00010BD1CB50121022001F058FD01210820C0
:100EC00001F054FD0121102001F050FD4FF480404D
:100ED000009001208DF8040002208DF8050000200C
:100EE0008DF806008DF8070069461C4801F080FA6D
:100EF000012000908DF8040002208DF805000020EC
:100F00008DF806008DF80700694615482AE00000B4
:100F1000C1400020F7530020000000200300002003
:100F2000AC000020001002404E0000201E000020F7
:100F3000060000202200002038000020440000208D
:100F4000480000202C0000203E000020110000205E
:100F500024540020E24000205C05002000040240F0
:100F6000000C024001F044FA4FF4004000900120D0
:100F70008DF8040002208DF8050000208DF8060091
:100F80008DF807006946F74801F032FA0420009016
:100F900001208DF8040002208DF8050000208DF856
:100FA00006008DF807006946EF4801F021FA4FF47A
:100FB0000050009001208DF8040002208DF80500FB
:100FC00000208DF806008DF807006946E54801F01D
:100FD0000FFA4FF48050009001208DF80400022099
:100FE0008DF8050000208DF806008DF80700694691
:100FF000DC4801F0FDF92020009000208DF804006D
:1010000002208DF8050001208DF807006946D648BA
:1010100001F0EEF91CBD0EB5642002F077FE4FF42E
:10102000A06000F0A5FD4FF4E13002F0F1FE4FF4B6
:10103000E13002F045FF4FF4E13002F098FF4FF449
:10104000E13002F0ECFF4FF4E13003F04FF8FFF72E
:1010500030FF472142F20F7003F0A2FC40F6B83097
:1010600002F0B6FE0120C14908700321C0480068A3
:1010700003F0BFF8BD480078012818D115E04FF4FF
:101080008041B84801F032FA4FF47A7002F0A0FEC5
:101090004FF48041B34801F027FA4FF47A7002F020
:1010A00097FEB248007800B900E0E8E700BF4FF4CF
:1010B0008041AC4801F01AFA0121AE4801F016FA5D
:1010C0004FF40041A74801F011FA4FF47A7002F092
:1010D0007FFE4FF48041A34801F006FA0121A548A4
:1010E00001F002FA4FF400419E4801F0FDF94FF47F
:1010F000FA710420FFF7A0F87C2001F08DFAD8B136
:10110000A0208DF800008DF80100E3208DF802008A
:1011100000208DF803008DF8040097480168CDF891
:1011200005108088ADF8090000208DF80B000C2117
:10113000684603F05EF800BFFBE1FFF78FF88F48C9
:101140000078012829D100208C49087004218648A4
:1011500001F0CAF94FF40051824801F0C5F94FF48B
:101160008051804801F0C0F90A2002F031FE0421CC
:101170007D4801F0BBF94FF400517A4801F0B6F90F
:101180004FF48051774801F0B1F90A2002F020FEB7
:10119000012000F086FB00F089FB794800780128E7
:1011A0002BD100207649087004216F4801F09CF98A
:1011B0000A2002F00DFE04216B4801F097F932205D
:1011C00002F006FE6F4870490A68026009790171F1
:1011D00000206C490871481D67490A6802608988C7
:1011E0008180801D0021016081808171032065491B
:1011F00048741221634802F0FCFF614840780128DE
:101200002DD100205E4948704FF40051554801F03F
:101210006BF90A2002F0DCFD4FF40051514801F057
:1012200065F9322002F0D4FD584859490A68026035
:1012300009790171002055490871481D4E490A6815
:10124000026089888180801D002101608180817118
:1012500003204E49487412214C4802F0CAFF484806
:10126000807801282DD10020454988704FF48051A5
:101270003C4801F039F90A2002F0AAFD4FF48051F0
:10128000384801F033F9322002F0A2FD41484249CA
:101290000A6802600979017100203E490871481D01
:1012A00035490A68026089888180801D00210160BB
:1012B000818081710320374948741221354802F03A
:1012C00098FF3648008800F40040B0B1FFF75DF9A0
:1012D0000020324908803248007810B13048407808
:1012E00028B930A41221204602F083FF05E032A481
:1012F0001221204602F07DFF00BF3448008800F430
:10130000004020B1002031490880FFF7C1FC30487F
:10131000008800F4004020B100202D490880FFF72C
:101320006BFB2C48008800F4004020B100202949C4
:101330000880FFF710F828480078012864D10020C1
:101340002549087025480088B0F5947F48DA23497C
:101350000A880D490C31102303FB0210194602F0D4
:101360006FFF4CE00004024000100240100000201B
:1013700068000020000C02401100002051000020F5
:101380001F000020B640002012090020CC400020A1
:101390009E1B0020E24000202A2E0020A4000020F6
:1013A0004E0000206368616E6E656C206973206971
:1013B000646C652E2E2E00006368616E6E656C2075
:1013C000697320627573792E2E2E0000A80000200C
:1013D000A6000020A00000205A0000203E000020AF
:1013E0000020FE490880FE490870FE4908804FF43D
:1013F0008041FD4801F078F80020FC490870F7486A
:101400000088401CF5490880F9484078012824D11B
:101410000020F7494870F1484088B0F5947F09DA18
:10142000EE494A88F349102303FB0210194602F0E3
:10143000B4FE0DE00020E9494880E9494870E949D7
:1014400048800121EC4801F04FF80020E74908707E
:10145000E2484088401CE1494880E54880780128FE
:1014600025D10020E2498870DC488088B0F5947F5F
:1014700009DADA498A88E149102303FB0210194688
:1014800002F0F4FE0EE00020D4498880D449887030
:10149000D44988804FF40041D34801F025F800205A
:1014A000D2490870CD488088401CCC498880D448F7
:1014B000007801283DD10020D1490870D14800783A
:1014C00001280FD1D048007860B90120CF490870B9
:1014D0000621CF4802F0B4FEFEF7CEFE1420CD491F
:1014E000088026E0C748407801280FD1C6484078D8
:1014F00060B90120C54948700621C54802F04DFE7B
:10150000FEF7D0FE1420C349488012E0BD48807821
:1015100001280ED1BC48807858B90120BB49887099
:101520000621BB4802F0A2FEFEF7D2FE1420B94904
:10153000888002E610B50121B74802F0D0F80028F3
:101540007ED02021B54800F0B5FF70B9B4480088BE
:10155000401CB34908800846008841F2883188421F
:101560002EDD0020AE4908802AE0AD4800880A2818
:101570000BDBAB480088B0F5FA6F06DC0120A94907
:1015800008700020A64908801AE0A5480088B0F538
:10159000FA6F0CDDA248008841F28831884206DCEF
:1015A0000220A049087000209D49088008E09C485E
:1015B000008841F28831884202DD00209849088085
:1015C00099480078012824D186480088401C854924
:1015D00008800846008840F6B831884219DDFEF7D9
:1015E00041FE002087490870904908704FF48041FF
:1015F0007D4800F079FF002078490880784908701C
:101600008B49088079490870804908700120894910
:10161000087085484078012825D172484088401CD0
:10162000704948800846408840F6B83188421ADD43
:10163000FEF72EFE0020734948707C49487000E098
:101640002EE101216C4800F04FFF002063494880E3
:101650006349487076494880644908706B4948700E
:1016600001207449487070488078012824D15D4871
:101670008088401C5B4988800846808840F6B831E5
:10168000884219DDFEF71AFE00205E49887067491E
:1016900088704FF40041544800F026FF00204F4965
:1016A00088804F498870624988805049087057493E
:1016B000887001205F49887053480078012812D152
:1016C0005D480088401C5C490880084600885149F4
:1016D0000988884207DD0020574908804FF480417F
:1016E000414800F00CFF48484078012811D1524889
:1016F0004088401C504948800846408845494988F0
:10170000884206DD00204C49488001213A4800F01B
:10171000F6FE3D488078012812D147488088401C59
:1017200045498880084680883A498988884207DD8B
:101730000020414988804FF400412B4800F0DFFE33
:101740002748007801280DD139480088401C3849C5
:10175000088008460088022804DD00200880012057
:10176000234908701E48407801280DD13048408830
:10177000401C2F49488008464088022804DD00208C
:10178000488001201A4948701548807801280DD1F9
:1017900027488088401C264988800846808802287F
:1017A00004DD0020888001201149887023480078DA
:1017B00001284FD122480088401C21490880084652
:1017C0000088502846DD4FF48041074800F097FE1E
:1017D00000201B4908801949087033E03E000020B2
:1017E000440000202C000020000402401E000020C5
:1017F0005A000020AA1B0020000C0240362E0020B8
:101800000C0000204E0000202500002006000020D3
:101810005400002038000020001400400010024056
:10182000520000205100002028000020220000204B
:10183000480000201F000020320000201B00002074
:101840001C0000202149088021A41221204602F01A
:10185000D0FC00BF2348007801281DD12248008811
:10186000401C214908800846008820490988884290
:1018700012DD00201C4908801D48007820B9012095
:101880001B4908701B4908701948407820B901208D
:1018900017494870174908700121174801F030FFB7
:1018A00010BD00F0010181F313887047BFF34F8F23
:1018B0001248006800F4E06011490843001D0F4918
:1018C0000860BFF34F8F00BFFEE70000A4000020B8
:1018D00064617461207265636576206572722E2E74
:1018E0002E2E0000090000200A0000200E0000201B
:1018F0004E0000200C000020001400400CED00E021
:101900000000FA05704700BFFEE700BFFEE700BF1A
:10191000FEE700BFFEE77047704770477047000062
:101920000CB50020019000907648006840F48030AB
:101930007449086000BF7348006800F400300090EC
:101940000198401C0190009818B90198B0F5A04F7B
:10195000F1D16C48006800F4003010B10120009013
:1019600001E0002000900098012846D165484030F1
:10197000006840F080506349403108606248006868
:1019800040F44040604908605E48083000685D49A6
:10199000083108600846006840F4004008600846C6
:1019A000006840F4A05008605848091F0860081FEC
:1019B000006840F08070091F086000BF514800684F
:1019C00000F000700028F9D040F20570504908601E
:1019D0004C480830006820F003004A49083108608C
:1019E0000846006840F00200086000BF4548083023
:1019F000006800F00C000828F8D10CBD10B545486F
:101A0000006840F47000434908603E48006840F0B8
:101A100001003C49086000203A4908310860394813
:101A200000683D490840374908603C48091D086086
:101A3000081F006820F48020091F08600020314939
:101A40000C310860FFF76CFF4FF0006031498039BE
:101A5000086010BD70B5002000220223002402217E
:101A6000284D08352D6805F00C0020B1042806D05B
:101A7000082834D107E02A4D2A4E356033E02A4D3C
:101A8000284E35602FE01F4D2D1D2D68C5F3805465
:101A90001C4D2D1D2D6805F03F0154B1224DB5FBA5
:101AA000F1F5184E361D3668C6F3881605FB06F2AA
:101AB00009E01B4DB5FBF1F5124E361D3668C6F335
:101AC000881605FB06F20F4D2D1D2D68C5F3014547
:101AD0006D1C6B00B2FBF3F5124E356003E0104D48
:101AE000104E356000BF00BF064D08352D68C5F3A8
:101AF00003150E4E705D0B4D2D68C540094E3560C7
:101B000070BD0000003802400070004008544007DB
:101B1000003C024088ED00E0FFFFF6FE103000249C
:101B20000024F4007800002000127A007C000020DD
:101B30000948804709480047FEE7FEE7FEE7FEE761
:101B4000FEE7FEE7FEE7FEE7FEE7FEE7044805499D
:101B5000054A064B70470000FD190008890100087E
:101B6000D8540020D85A0020D8560020D85600203B
:101B700032490143324A1160704770B50021002399
:101B80000F22C4781CB32E4C246804F4E064C4F51E
:101B9000E064C4F30721C1F10404E3B20A414478CC
:101BA0009C40E1B28478144021430C07210E254C5F
:101BB00005786155047804F01F050124AC400578D0
:101BC0006D11AD0005F1E025C5F8004109E004788C
:101BD00004F01F050124AC401B4D0678761145F832
:101BE000264070BD194A0A400243154B1B1F1A605C
:101BF000704739B1124A121D12680243104B1B1D67
:101C00001A6006E00E4A121D126882430C4B1B1D1F
:101C10001A607047042808D14FF0E021096941F0AB
:101C200004014FF0E022116107E04FF0E021096963
:101C300021F004014FF0E022116170470000FA0525
:101C40000CED00E000E400E080E100E080FFFF1F19
:101C5000FE4A1070704730B1FC49096841F4807148
:101C6000FA4A116005E0F949096821F48071F74AE0
:101C70001160704730B1F549096841F40071F34AC9
:101C8000116005E0F149096821F40071EF4A116023
:101C9000704730B1ED49096841F48061EB4A116049
:101CA00005E0EA49096821F48061E84A116070475B
:101CB000E648006840F40060E44908607047E34883
:101CC000006840F48050E14908607047DF481030F8
:101CD000006800F0004028B1DD48DC49091D0860BB
:101CE000DC4808607047D9481030006840F0004078
:101CF000D6491031086070470920D4490C31096871
:101D000001F48031B1F5803F01D1012020E0CF49BD
:101D10000C31096801F0100109B1062018E0CB4927
:101D20000C31096801F4807109B1022010E0C74943
:101D30000C31096801F0EF0109B1072008E0C3493F
:101D40000C31096801F0020109B1082000E0092006
:101D5000704708B509200090FFF7CEFF009002E021
:101D6000FFF7CAFF00909DF800000128F8D09DF809
:101D7000000008BD70B504460A460026092502B9D0
:101D800009E0012A01D1160205E0022A01D116025A
:101D900001E04FF44076FFF7DCFF0546092D2DD119
:101DA000AA481030006820F44070A849103108603B
:101DB00008460068304308600846006820F0F800D4
:101DC00008600846006844F0020108439F4910314A
:101DD00008600846006840F480300860FFF7B9FFEB
:101DE00005469A481030006820F0020097491031EB
:101DF00008600846006820F0F8000860284670BDBA
:101E000030B5024600250924FFF7A3FF044602B9B6
:101E100009E0012A01D1150205E0022A01D11502CB
:101E200001E04FF44075092C20D18848103000683B
:101E300020F4407085491031086008460068284346
:101E400008600846006840F0040008600846006822
:101E500040F480300860FFF77CFF04467B48103078
:101E6000006820F00400794910310860204630BD38
:101E700030B5024600250924FFF76BFF044602B97E
:101E800009E0012A01D1150205E0022A01D115025B
:101E900001E04FF44075092C20D16C4810300068E7
:101EA00020F44070694910310860084600682843F2
:101EB00008600846006840F00400086008460068B2
:101EC00040F480300860FFF744FF04465F4810305C
:101ED000006820F004005D4910310860204630BDE4
:101EE00030B5024600250924FFF733FF044602B946
:101EF00009E0012A01D1150205E0022A01D11502EB
:101F000001E04FF44075092C20D150481030006892
:101F100020F440704D49103108600846006828439D
:101F200008600846006840F4004008600846006801
:101F300040F480300860FFF70CFF0446434810303F
:101F4000006820F40040414910310860204630BD4F
:101F500070B5064614461D460922FFF7FAFE0246F2
:101F6000092A1ED139481030006820F440703749E2
:101F7000103108600846006840F440700860084668
:101F8000006840F00100086034607560FFF7E1FE12
:101F900002462E481030006820F001002B49103115
:101FA0000860104670BD30B502460C460925FFF7A3
:101FB000D0FE0546092D1DD124481030006820F4BC
:101FC00040702249103108600846006840F40070F3
:101FD00008600846006840F0010008601460FFF7E0
:101FE000B8FE054619481030006820F00100174976
:101FF00010310860284630BD30B502460C46092530
:10200000FFF7A7FE0546092D1DD1104810300068C6
:1020100020F440700D49103108600846006840F413
:10202000807008600846006840F001000860148075
:10203000FFF78FFE054605481030006820F00100CC
:10204000024910310860284630BD0000003C0240C3
:1020500023016745AB89EFCD30B502460C46092513
:10206000FFF777FE0546092D17D19B48006820F43D
:102070004070994908600846006808600846006892
:1020800040F0010008601470FFF763FE05469248B7
:10209000006820F0010090490860284630BD8E4855
:1020A000001D006800F0010028B18C488A490839F9
:1020B00008608B48086070478748001D006840F042
:1020C00001008549091D0860704730B502460C467D
:1020D0000925FFF73EFE0546092D10D13CB17E488B
:1020E000801D008890437C49891D088007E07A485C
:1020F000801D008891B208437749891D088030BD52
:1021000030B502460C460925FFF723FE0546092D8A
:1021100010D13CB170480A30008890436E490A31B2
:10212000088007E06C480A30008891B208436A4989
:102130000A31088030BDFF21674AD21D127802F0B3
:102140007F0140EA0102644BDB1D1A70704730B515
:1021500002460C460925FFF7FCFD0546092D10D166
:1021600044B15D48801D008891B208435A49891DD9
:10217000088006E05848801D008890435649891D14
:10218000088030BD30B502460C460925FFF7E1FD59
:102190000546092D10D144B14F480A30008891B24C
:1021A00008434D490A31088006E04B480A30008850
:1021B000904349490A31088030BD10B502460924D0
:1021C000FFF7C7FD0446092C02D14348401D0270A9
:1021D00010BDF0B504460D46FF260927FFF7B9FDEF
:1021E0000746092F0BD13C48001D007800F00F0670
:1021F00045EA0600104320433749091D0870F0BD29
:102200003549091D097821F01001334A121D11705A
:10221000114609780143117070472F49091D09784B
:1022200021F00C012C4A121D11701146097801434E
:102230001170704700B509222748001D007840F052
:1022400002002549091D0870FFF783FD024610466C
:1022500000BD2148001D0068C0F3471070471E48AC
:10226000801D008870471C480A30008870471A4853
:10227000801D0088704718480A3000887047002089
:102280001549491D0978AA2901D0012000E0002044
:1022900070471148001D007800F00C00704729B10C
:1022A0000D4A126802430C4B1A6004E00A4A126895
:1022B0008243094B1A60704701460020064A121FEC
:1022C00012680A400AB1012000E00020704702496C
:1022D000091F086070470000103C02403B2A1908A3
:1022E0007F6E5D4C10B504469848844208D10121A8
:1022F000084600F0A6FB0021012000F0A2FB76E0DA
:102300009348844208D10121022000F09AFB002169
:10231000022000F096FB6AE08E48844208D1012139
:10232000042000F08EFB0021042000F08AFB5EE018
:102330008948844208D10121082000F082FB002155
:10234000082000F07EFB52E08448844208D101213D
:10235000102000F076FB0021102000F072FB46E018
:102360007F48844208D10121202000F06AFB00212F
:10237000202000F066FB3AE07A48844208D101212F
:10238000402000F05EFB0021402000F05AFB2EE0D0
:102390007548844208D10121802000F052FB0021C1
:1023A000802000F04EFB22E07048844208D10121D9
:1023B000801500F046FB0021A01500F042FB16E05E
:1023C0006B48844208D10121401500F03AFB0021FE
:1023D000601500F036FB0AE06648844207D101210F
:1023E000001500F02EFB0021201500F02AFB10BD87
:1023F000F0B50A4600210023002400BF3DE001257E
:1024000005FA01F3156805EA03049C4234D1056816
:102410004F000326BE40B543056015794E00B54018
:102420000668354305601579012D02D01579022D16
:1024300016D185684F000326BE40B54385605579A7
:102440004E00B540866835438560456801268E405C
:10245000B5434560456896798E40B6B235434560D0
:10246000C5684F000326BE40B543C560D5794E0010
:10247000B540C6683543C560491C1029BFD3F0BDBF
:102480004FF6FF7101600021017141718171C171CD
:10249000704708B54FF480320092009A0A430092C8
:1024A000009AC261C161009AC261C2690092C269A8
:1024B000009208BD0246002013690B400BB10120B9
:1024C00000E0002070470146086980B2704702466C
:1024D000002053690B400BB1012000E00020704741
:1024E0000146486980B27047018370474183704755
:1024F0000AB1018300E0418370474161704742693E
:102500004A4042617047F0B5002300244D07ED0EAC
:1025100002FA05F3CE1000F1200555F826504E07BB
:10252000F70E0F26BE40B543CF1000F1200646F847
:102530002750CE1000F1200555F8265045EA030437
:10254000CE1000F1200545F82640F0BD0000024005
:102550000004024000080240000C0240001002404B
:102560000014024000180240001C024000200240FB
:1025700000240240002802400E49086070470D49BF
:10258000486070470B49886070474AF6AA2009499D
:10259000086070474CF6CC40064908607047014619
:1025A0000020044AD2680A400AB1012000E000205D
:1025B0007047000000300040F948006840F001001A
:1025C000F74908600020F64908310860F4480068BF
:1025D000F4490840F2490860F348091D0860F348CF
:1025E000EF4984310860F0481038091D0860EC4854
:1025F000006820F48020EA4908600020E8490C3196
:102600000860E7498C31086070470021E44A921C59
:10261000117011460870704710B501460022002362
:1026200000204A11012A02D1DD4C236808E0022A69
:1026300003D1DB4C7034236802E0D94C7434236836
:1026400001F01F02012494401C400CB1012000E065
:10265000002010BD38B5002000900024002500BFE8
:102660003120FFF7D9FF05460098401C00900098E4
:10267000B0F5A04F01D0002DF2D03120FFF7CCFFF4
:1026800008B1012400E00024204638BD01460020A6
:10269000C34A106820F0F80040EAC100106070479B
:1026A000C349086070470021BD4A70321170117033
:1026B000012802D004280AD104E00121B84A70326E
:1026C000117005E00521B64A7032117000E000BFBC
:1026D00000BF7047B7490860704770B5049C41EA75
:1026E00082150126C6EB530645EA0645054345EA31
:1026F0000465AB4E361D356070BDAD490866704748
:10270000820142EA0172A64B84331A607047A849DD
:102710008866704710B5830143EA016343EA027398
:102720009F4C8834236010BDA14908677047A049B9
:10273000C864704702460020994B0833186820F09F
:10274000EC6042EA01031843954B08331860704768
:1027500002460020924B0833186820F0784042EA85
:10276000010318438E4B0833186070470146002060
:102770008B4A0832106820F003000843106070474D
:1027800087480830006800F00C00704701460020C0
:10279000834A0832106820F0F00008431060704748
:1027A000014600207E4A0832106820F4E0500843B9
:1027B0001060704701460020794A0832106820F402
:1027C000604040EAC10010607047F0B5002100226F
:1027D0000024022500260223714F08373F6807F0C6
:1027E0000C0121B1042905D0082937D105E0724F29
:1027F000076036E0714F076033E0694F3F1D3F6867
:10280000C7F38056664F3F1D3F6807F03F036EB128
:102810006A4FB7FBF3F7DFF888C10CF1040CDCF862
:1028200000C0CCF3881C07FB0CF40CE0624FB7FB34
:10283000F3F7DFF86CC10CF1040CDCF800C0CCF34A
:10284000881C07FB0CF4564F3F1D3F68C7F3014738
:102850007F1C7D00B4FBF5F7076002E0564F076070
:1028600000BF00BF4E4F08373F6807F0F00109096D
:10287000534F7A5C0768D7404760494F08373F6835
:1028800007F4E051890A4E4F7A5C4768D740876069
:10289000434F08373F6807F46041490B484F7A5C63
:1028A0004768D740C760F0BD002100F44072B2F520
:1028B000407F0AD13A4A0832116821F4F811414A9E
:1028C00002401143364A08321160354A70321268AC
:1028D000C0F30B031A43324B70331A60704735490B
:1028E00044390860704733494039086070473649B9
:1028F0000860704701460020294A8C32106820F099
:102900001F004A1E1043264A8C3210607047014651
:102910000020234A8C32106820F4F8504A1E40EA06
:1029200002201F4A8C3210607047014600201C4A6A
:102930008C32106820F44010084310607047014644
:102940000020174A8C32106820F4400008431060C1
:10295000704701460020124A8C32106820F4403043
:1029600008431060704719490860704739B10C4A34
:102970003032126802430A4B30331A6006E0084ACC
:10298000303212688243064B30331A607047F9B117
:10299000034A343212680243014B34331A601CE09C
:1029A00000380240FFFFF6EA10300024003000201B
:1029B00000004742800E47420024F40000127A00D3
:1029C0008C000020FFFCFF0F5C014742E0114742F2
:1029D0008F4A126882438E4B1A60704739B18C4A15
:1029E000121D126802438A4B1B1D1A6006E0884ABA
:1029F000121D12688243864B1B1D1A60704739B145
:102A0000834A0C3212680243814B0C331A6006E091
:102A10007F4A0C32126882437D4B0C331A60704738
:102A200039B17B4A103212680243794B10331A6075
:102A300006E0774A103212688243754B10331A60F1
:102A4000704739B1724A243A12680243704B243BF2
:102A50001A6006E06E4A243A126882436C4B243BAB
:102A60001A60704739B16A4A203A12680243684BCB
:102A7000203B1A6006E0664A203A12688243644BA3
:102A8000203B1A60704739B1614A1C3A1268024310
:102A90005F4B1C3B1A6006E05D4A1C3A1268824399
:102AA0005B4B1C3B1A60704739B1594A143A1268A3
:102AB0000243574B143B1A6006E0554A143A126819
:102AC0008243534B143B1A60704739B1504A103A55
:102AD000126802434E4B103B1A6006E04C4A103A13
:102AE000126882434A4B103B1A60704739B1484A1A
:102AF0001C3212680243464B1C331A6006E0444AFB
:102B00001C3212688243424B1C331A60704739B141
:102B10003F4A2032126802433D4B20331A6006E0E0
:102B20003B4A203212688243394B20331A60704787
:102B300039B1374A243212680243354B24331A60C4
:102B400006E0334A243212688243314B24331A6040
:102B5000704739B12E4A2C32126802432C4B2C3369
:102B60001A6006E02A4A2C3212688243284B2C3322
:102B70001A60704739B1264A303212680243244B3A
:102B800030331A6006E0224A303212688243204B0A
:102B900030331A607047012808D11D493C3109685B
:102BA00041F008011A4A3C32116007E018493C31F3
:102BB000096821F00801164A3C321160704739B1AA
:102BC000134A273A12780243114B273B1A7006E04A
:102BD0000F4A273A127882430D4B273B1A707047F1
:102BE0000B484030006840F080700949403108606F
:102BF000704701460020064A283A12680A400AB186
:102C0000012000E000207047014926390870704714
:102C10003438024010B50446FE48844208D10121F0
:102C20000846FFF752FF00210120FFF74EFF9DE00D
:102C3000B4F1804F08D101210846FFF735FF00218C
:102C40000120FFF731FF91E0F348844208D10121D0
:102C50000220FFF729FF00210220FFF725FF85E072
:102C6000EE48844208D101210420FFF71DFF002116
:102C70000420FFF719FF79E0E948844208D10121D7
:102C80000820FFF711FF00210820FFF70DFF6DE07E
:102C9000E448844208D101211020FFF705FF0021FC
:102CA0001020FFF701FF61E0DF48844208D10121D5
:102CB0002020FFF7F9FE00212020FFF7F5FE55E068
:102CC000DA48844208D101210220FFF7FEFE0021EC
:102CD0000220FFF7FAFE49E0D548844209D10121DC
:102CE0000804FFF7F2FE00214FF48030FFF7EDFEFD
:102CF0003CE0D048844209D101214804FFF7E5FEB9
:102D000000214FF40030FFF7E0FE2FE0CA48844274
:102D100009D101218804FFF7D8FE00214FF480205B
:102D2000FFF7D3FE22E0C548844208D101214020AC
:102D3000FFF7BAFE00214020FFF7B6FE16E0C048BC
:102D4000844208D101218020FFF7AEFE00218020BF
:102D5000FFF7AAFE0AE0BB48844207D10121801593
:102D6000FFF7A2FE0021A015FFF79EFE10BD002276
:102D70000288A84B98420ED0AC4B98420BD0B0F1D1
:102D8000804F08D0A44B984205D0A44B984202D063
:102D9000A34B984204D14FF68F731A404B881A43C5
:102DA000A04B984207D0A04B984204D04FF6FF4367
:102DB0001A400B891A4302804B68C3620B88038553
:102DC000944B984202D0994B984201D18B7A03865A
:102DD0000123838270474FF0FF3141600021018061
:102DE00001814180817270470185828270470A4665
:102DF000002101884FF68F731940114301807047FD
:102E000041627047C16270470146486A7047014697
:102E1000088D704721B1028842F00202028004E06E
:102E200002884FF6FD731A400280704721B1028874
:102E300042F00402028004E002884FF6FB731A405D
:102E40000280704721B1028842F08002028004E0D3
:102E500002884FF67F731A400280704702884FF64F
:102E6000F7731A40028002880A4302807047028882
:102E70004FF6FF431A40028002880A4302807047DF
:102E800021B1028842F00102028004E002884FF67C
:102E9000FE731A400280704770B5002400220023A0
:102EA000058C4FF6FE7635400584028C8388048BB2
:102EB0004FF68F752C40B51E2C400D882C43751E87
:102EC0002A408D892A434D882A43524DA84202D078
:102ED000564DA84213D14FF6F7752A40CD892A43A3
:102EE0004FF6FB752A408D882A434FF6FF652B402D
:102EF0004FF6FF552B400D8A2B434D8A2B43838081
:102F000004838D684563028470BD70B5002400227F
:102F10000023058C4FF6EF7635400584028C8388BC
:102F2000048B48F6FF752C404FF6FF452C400D886A
:102F30004FF6FF7606EA05252C434FF6DF752A404B
:102F40008D8906EA05152A434D8806EA05152A43A8
:102F5000304DA84202D0354DA8421DD14FF67F75A5
:102F60002A40CD894FF6FF7606EA05152A434FF62B
:102F7000BF752A408D8806EA05152A434FF6FF35AE
:102F80002B404FF2FF752B400D8A06EA85052B4337
:102F90004D8A06EA85052B43838004838D6885630B
:102FA000028470BD70B5002400220023058C4FF60A
:102FB000FF6635400584028C8388848B4FF68F75BD
:102FC0002C404FF6FC752C400D882C434FF6FF55D6
:102FD0002A408D894FF6FF7606EA05252A434D885B
:102FE00006EA05252A430B4DA84202D00F4DA84200
:102FF00038D14FF2FF752A40CD894FF6FF7606EAA9
:1030000005252A434FF6FF352A408D8806EA052517
:103010002A4319E00000014000040040000800407D
:10302000000C00400010004000140040000401406B
:1030300000400140004401400048014000180040A9
:10304000001C0040002000404EF6FF752B404DF65E
:10305000FF752B400D8A06EA05152B434D8A06EABB
:1030600005152B43838084838D68C563028470BDFE
:1030700070B5002200230024058C4EF6FF76354003
:103080000584038C8488828B48F6FF752A404FF6AE
:10309000FF452A400D884FF6FF7606EA05252A43AC
:1030A0004DF6FF752B408D8906EA05352B434D887B
:1030B00006EA05352B43FE4DA84202D0FD4DA8423D
:1030C00008D14BF6FF752C400D8A4FF6FF7606EAC5
:1030D00085152C43848082838D680564038470BDCC
:1030E000002101804180818081608181C1810182D4
:1030F0004182704770B503460020002418461830FE
:1031000001258D40ACB21D8CA5431D8409B1082951
:103110000AD100EB610005684FF68F7635400560F7
:103120000568154305600FE00D1FC5F34E052844E3
:10313000056848F6FF763540056005684FF6FF766E
:1031400006EA02263543056070BD4163704781631E
:103150007047C1637047016470470A460021018BC4
:103160004FF68F7319401143018370470A460021BF
:10317000018B48F6FF7319404FF6FF7303EA0223F1
:103180001943018370470A460021818B4FF68F73E4
:1031900019401143818370470A460021818B48F60C
:1031A000FF7319404FF6FF7303EA0223194381832B
:1031B00070470A460021018B4FF6F77319401143FF
:1031C000018370470A460021018B4FF2FF731940BB
:1031D0004FF6FF7303EA02231943018370470A463F
:1031E0000021818B4FF6F77319401143818370479B
:1031F0000A460021818B4FF2FF7319404FF6FF738F
:1032000003EA02231943818370470A460021018B98
:103210004FF6FB7319401143018370470A460021A2
:10322000018B4FF6FF3319404FF6FF7303EA022379
:103230001943018370470A460021818B4FF6FB73C7
:1032400019401143818370470A460021818B4FF654
:10325000FF3319404FF6FF7303EA022319438183BA
:1032600070470A460021018B4FF67F7319401143C6
:10327000018370470A460021018BC1F30E014FF60E
:10328000FF7303EA02231943018370470A460021B2
:10329000818B4FF67F7319401143818370470A4633
:1032A0000021818BC1F30E014FF6FF7303EA022365
:1032B0001943818370470A460021018C4FF6FD7344
:1032C00019401143018470470A460021018C4FF6D2
:1032D000F77319401143018470470A460021018C9D
:1032E0004FF6DF7319404FF6FF7303EA02131943D9
:1032F000018470470A460021018C4FF67F73194004
:103300004FF6FF7303EA02131943018470470A461C
:103310000021018C4FF6FF5319404FF6FF7303EA6B
:1033200002231943018470470A460021018C4FF2A1
:10333000FF7319404FF6FF7303EA02231943018418
:1033400070470A460021018C4DF6FF7319404FF675
:10335000FF7303EA023319430184704730B5002339
:1033600001248C40A3B2048C9C430484048C02FA94
:1033700001F5ADB22C43048430BD30B500230424E4
:103380008C40A3B2048C9C430484048C02FA01F5A3
:10339000ADB22C43048430BD828B4FF2FF331A4010
:1033A0008283828B4FF6FF7303EA01231A438283E1
:1033B0007047F0B50C461546002100220026078C08
:1033C0004EF6FF7C07EA0C070784818B028C4FF6D0
:1033D000FF7707EA043640F6FF4739404FF6FF779C
:1033E00007EA052739434FF6FF7707EA03373943E2
:1033F00045F6FF773A4046F480573A43818302848A
:10340000F0BD828B4FF6F3731A408283828B0A439E
:1034100082837047F0B50C46154600210022002635
:10342000078C4FF6FF6C07EA0C070784818B028C30
:103430004FF6FF7707EA04264FF60C7739404FF630
:10344000FF7707EA03172F4339434FF2FF573A40FC
:1034500046F480773A4381830284F0BD028B4FF2B9
:10346000FF331A400283028B4FF6FF7303EA0123F6
:103470001A4302837047F0B50C461546002100221E
:103480000026078C4FF6EF7C07EA0C070784018BB8
:10349000028C4FF6FF7707EA041640F6FF473940E3
:1034A0004FF6FF7707EA033739434FF6FF7703E01C
:1034B000000001400004014007EA052739434FF6A8
:1034C0005F773A4046F010073A4301830284F0BD2B
:1034D000028B4FF6F3731A400283028B0A43028376
:1034E0007047F0B50C46154600210022068C4FF6B9
:1034F000FE773E400684018B028C4FF60C763140FD
:103500007E1C06EA03162E4331434FF6F576324011
:1035100044F00106324301830284F0BD70B50546D4
:103520000C46208850B92389A28861882846FFF775
:10353000D8FFE1882846FFF7CBFF25E02088042844
:103540000AD12389A28861882846FFF794FFE18881
:103550002846FFF783FF17E0208808280AD123892F
:10356000A28861882846FFF755FFE1882846FFF7C3
:1035700048FF09E02389A28861882846FFF719FFE0
:10358000E1882846FFF708FF70BD002101804180D7
:10359000012181800021C180018170472DE9F04126
:1035A00005460C4600260127608808B9022600E07F
:1035B0000026A088012801D1022700E001272088E9
:1035C000A0B92389A28861882846FFF78AFFE1888D
:1035D0002846FFF77DFF23893A4631462846FFF704
:1035E0004AFFE1882846FFF739FF13E02389A288C4
:1035F00061882846FFF73FFFE1882846FFF72EFF46
:1036000023893A4631462846FFF76BFFE188284672
:10361000FFF75EFFBDE8F0810146486B7047014649
:10362000886B70470146C86B70470146086C70474D
:103630000A884B881A438B881A43CB881A430B8914
:103640001A434B891A438B891A43A0F844207047C8
:103650000021018041808180C1800181418181817F
:10366000704731B1B0F8442042F40042A0F8442041
:1036700005E0B0F84420C2F30E02A0F844207047E1
:1036800021B1828842F00402828004E082884FF6F1
:10369000FB731A408280704721B1828842F0010298
:1036A000828004E082884FF6FE731A408280704761
:1036B0001AB183890B43838102E083898B43838121
:1036C00070478182704702460020138A0B400BB17D
:1036D000012000E000207047CA430282704730B5E5
:1036E0000246002000230024158A05EA010395897B
:1036F00005EA010413B10CB1012000E0002030BD47
:10370000CA430282704741EA0203A0F8483070477A
:103710001AB183890B43838102E083898B438381C0
:10372000704721B1828842F00802828004E08288DA
:103730004FF6F7731A408280704701894FF6F8728E
:103740001140018170470A46002101894FF68F73AD
:10375000194011430181704730B504460D46294692
:103760002046FFF7F0FF208940F00700208130BDA0
:103770002DE9F04104460D4616461F46602D06D140
:103780003B46012231462046FFF775FE05E03B46E9
:10379000012231462046FFF7A4FE29462046FFF7C6
:1037A000D2FF208940F007002081BDE8F08130B5CC
:1037B0000C4600210189C9B24FF6FF7505EA0325C1
:1037C000154325432943018130BD2DE9F0410546CC
:1037D0000E4617469846002443463A463146284648
:1037E000FFF7E5FF2C894FF6F870044044F007041A
:1037F0004FF68F70044044F070042C81BDE8F081D6
:10380000F0B504460D4616461F463B46324629464D
:103810002046FFF7CCFF208940F480402081F0BD96
:1038200082884FF68F731A40828082880A43828092
:10383000704702894FF6F8731A40028102890A43E1
:103840000281704702894FF67F731A400281028914
:103850000A4302817047F0B50C4615461E4600210A
:10386000002200230189028B038C4FF6F877394040
:1038700021434FF6FC473A4040F201173A434FF6D6
:10388000DD773B404FF6FF7707EA06172F433B43B0
:10389000018102830384F0BD21B1828842F080025D
:1038A000828004E082884FF67F731A4082807047DE
:1038B000A0F850107047000010B50446FA48844242
:1038C00008D101211020FFF700F900211020FFF797
:1038D000FCF857E0F548844209D101214804FFF77C
:1038E000E3F800214FF40030FFF7DEF84AE0F0483B
:1038F000844209D101218804FFF7D6F800214FF452
:103900008020FFF7D1F83DE0EA48844209D1012147
:10391000C804FFF7C9F800214FF40020FFF7C4F8EE
:1039200030E0E548844209D101210805FFF7BCF8E1
:1039300000214FF48010FFF7B7F823E0DF488442FE
:1039400008D101212020FFF7C0F800212020FFF737
:10395000BCF817E0DA48844209D101218807FFF753
:10396000A3F800214FF08040FFF79EF80AE0D54809
:10397000844207D101214005FFF796F80021600538
:10398000FFF792F810BD2DE9FF4705460E460024CB
:10399000A14600BFA046B08900B100BF2C8A24F424
:1039A0004054F08804432C82AC8941F20C6084437B
:1039B000B08831890843718908430443AC81AC8ADB
:1039C00024F44074B0890443AC826846FEF7FDFEDF
:1039D000B548854202D0B948854202D1DDF80C9045
:1039E00001E0DDF80890A88900F4004040B109EB3F
:1039F000C90000EB091031684900B0FBF1F707E09E
:103A000009EBC90000EB091031688900B0FBF1F740
:103A10006420B7FBF0F004012009642101FB107859
:103A2000A88900F4004040B1322000EBC800B0FB90
:103A3000F1F000F00700044308E0322000EB08102A
:103A40006421B0FBF1F000F00F0004432C81BDE8CD
:103A5000FF874FF41651016000218180C1800181F0
:103A60000C21418100218181704710B50246002060
:103A7000108A20F470600B884C8823438C88234381
:103A8000CC8823431843108210BD0021018041805F
:103A90008180C180704721B1828942F400528281C5
:103AA00004E082894DF6FF731A4082817047028BD1
:103AB00002F47F420283028B0A430283704721B1E2
:103AC000828942F40042828103E08289C2F30E02BD
:103AD0008281704721B1828A42F40062828204E0CE
:103AE000828A4FF2FF731A4082827047C1F3080244
:103AF0008280704701468888C0F308007047028AB8
:103B00004FF6F0731A400282028A0A43028270471B
:103B100021B1828942F00202828104E082894FF65B
:103B2000FD731A408281704782894FF2FF731A40F9
:103B3000828182890A4382817047028A4FF6DF734D
:103B40001A400282028A0A430282704721B1028A25
:103B500042F48042028204E0028A4BF6FF731A406C
:103B600002827047818941F001018181704721B152
:103B7000828A42F00802828204E0828A4FF6F7735A
:103B80001A4082827047028BD2B20283028B42EAD1
:103B900001220283704721B1828A42F02002828290
:103BA00004E0828A4FF6DF731A408282704721B1A7
:103BB000828A42F01002828204E0828A4FF6EF731A
:103BC0001A4082827047828A4FF6FB731A408282C3
:103BD000828A0A438282704721B1828A42F00202BD
:103BE000828204E0828A4FF6FD731A408282704717
:103BF0001AB1838A0B43838202E0838A8B438382D8
:103C00007047F0B50346002400260025002040F64A
:103C10006A17B94200D100BF1846C1F3421401F03F
:103C20001F06012707FA06F5012C01D10C3004E02C
:103C3000022C01D1103000E014301AB107682F4374
:103C4000076002E00768AF430760F0BD024600204E
:103C5000B1F5007F00D100BF13880B400BB10120EC
:103C600000E00020704701F40072B2F5007F00D13F
:103C700000BFCA430280704770B50246002400238B
:103C80000025002040F66A16B14200D100BFC1F302
:103C9000421501F01F03012606FA03F3012D13D18B
:103CA0009689334017E000000010014000440040B6
:103CB00000480040004C004000500040001401400B
:103CC00000780040007C0040022D02D1168A33406B
:103CD00001E0968A33400C12012606FA04F4168895
:103CE000344013B10CB1012000E0002070BD10B5CC
:103CF0000022002340F66A14A14200D100BF0A123C
:103D000001249440A3B2DC43048010BD10B50446E6
:103D10006FF00400FDF77EFFE11704EB5171C1F372
:103D2000C701394A11701046007800EB4001C1EB21
:103D3000C0104FF6FF7101EAC0003449088010BD81
:103D40000146314A12784A434FF0E0235A6100227B
:103D50009A611A46126942F001021A6100BF4FF0DF
:103D6000E022106900F001021AB100F48032002A4A
:103D7000F5D04FF0E022126922F001024FF0E0236B
:103D80001A6100229A6170470146204A12884A430C
:103D90004FF0E0235A6100229A611A46126942F0FC
:103DA00001021A6100BF4FF0E022106900F0010229
:103DB0001AB100F48032002AF5D04FF0E0221269E7
:103DC00022F001024FF0E0231A6100229A6170474D
:103DD00070B504464FF4077094FBF0F0C6B24FF490
:103DE000077094FBF0F100FB114085B205E04FF441
:103DF0000770FFF7C9FF701EC6B2002EF7D115B1CC
:103E00002846FFF7C1FF70BD9C0000209E000020E7
:103E100010B588B0044601210846FEF7A7FD012130
:103E20001020FEF7FDFD07220921FD48FEF76BFB80
:103E300007220A21FA48FEF766FB4FF4C06006909D
:103E400002208DF81C008DF81D0000208DF81E004A
:103E500001208DF81F0006A9F148FEF7C9FA029467
:103E60000020ADF80C00ADF80E00ADF81000ADF874
:103E700014000C20ADF8120002A9EA48FFF783FDF8
:103E8000012240F22551E748FFF7BBFE012240F234
:103E90002441E448FFF7B5FE25208DF804000320F7
:103EA0008DF805008DF8060001208DF8070001A8A7
:103EB000FDF763FE0121DB48FFF7EDFD08B010BD03
:103EC00010B588B0044601210820FEF74FFD0121FE
:103ED0004804FEF794FD07220521D348FEF713FBA3
:103EE00007220621D048FEF70EFB60200690022034
:103EF0008DF81C008DF81D0000208DF81E0001209B
:103F00008DF81F0006A9C848FEF772FA0294002037
:103F1000ADF80C00ADF80E00ADF81000ADF81400CF
:103F20000C20ADF8120002A9C048FFF72CFD0122B9
:103F300040F22551BD48FFF764FE012240F22441C2
:103F4000BA48FFF75EFE26208DF8040003208DF8A6
:103F500005008DF8060001208DF8070001A8FDF787
:103F60000CFE0121B148FFF796FD08B010BD10B559
:103F700088B0044601210420FEF7F8FC01218804E2
:103F8000FEF73DFD07220A21A948FEF7BCFA0722E9
:103F90000B21A748FEF7B7FA4FF4406006900220C5
:103FA0008DF81C008DF81D0000208DF81E000120EA
:103FB0008DF81F0006A99E48FEF71AFA0294002009
:103FC000ADF80C00ADF80E00ADF81000ADF814001F
:103FD0000C20ADF8120002A99648FFF7D4FC272068
:103FE0008DF8040003208DF805008DF806000120EF
:103FF0008DF8070001A8FDF7C0FD012240F2255110
:104000008C48FFF7FEFD012240F224418948FFF76A
:10401000F8FD01218748FFF73EFD08B010BD10B53F
:104020008AB0044601210846FEF7A0FC0121C8041D
:10403000FEF7E5FC082200217948FEF764FA082221
:1040400001217748FEF75FFA0320089002208DF8DF
:1040500024008DF8250000208DF8260001208DF821
:10406000270008A96E48FEF7C3F904940020ADF8B4
:104070001400ADF81600ADF81800ADF81C000C20C7
:10408000ADF81A0004A96C48FFF77DFC0020ADF8DC
:104090000800ADF80A004FF40070ADF80C000020E5
:1040A000ADF80E0002A96448FFF7DFFC34208DF85C
:1040B000040003208DF805008DF8060001208DF81E
:1040C000070001A8FDF759FD012240F225515A4889
:1040D000FFF797FD012240F224415748FFF791FD79
:1040E00001215548FFF7D7FC0AB010BD10B588B0C4
:1040F000044601210420FEF739FC01212020FEF7AF
:104100008FFC082206214A48FEF7FDF90822072104
:104110004748FEF7F8F9C020069002208DF81C00F1
:104120008DF81D0000208DF81E0001208DF81F0065
:1041300006A93F48FEF75CF902940020ADF80C0098
:10414000ADF80E00ADF81000ADF814000C20ADF87D
:10415000120002A93948FFF716FC012240F225514E
:104160003648FFF74EFD012240F224413348FFF765
:1041700048FD47208DF8040003208DF805008DF8D8
:10418000060001208DF8070001A8FDF7F6FC0121CB
:104190002A48FFF780FC08B010BD70B505460E46F2
:1041A000002400BF0CE0295D1E48FFF79FFC00BF04
:1041B00080211C48FFF74AFD0028F9D0601C84B21A
:1041C000B442F0DB70BD70B505460E46002400BF5A
:1041D0000CE0295D1548FFF789FC00BF80211348DA
:1041E000FFF734FD0028F9D0601C84B2B442F0DB44
:1041F00070BD70B505460E46002400BF0CE0295D79
:104200000C48FFF773FC00BF80210A48FFF71EFD32
:104210000028F9D0601C84B2B442F0DB70BD00000D
:104220000000024000100140000C02400044004029
:104230000008024000480040004C004000140140CB
:1042400070B505460E46002400BF0CE0295DFE480F
:10425000FFF74CFC00BF8021FB48FFF7F7FC00286C
:10426000F9D0601C84B2B442F0DB70BD70B5054675
:104270000E46002400BF0CE0295DF448FFF736FC31
:1042800000BF8021F148FFF7E1FC0028F9D0601C55
:10429000C4B2B442F0DB70BD10B540F22551EC4819
:1042A000FFF7EAFCA8B1EA48FFF724FCC4B2E948EA
:1042B0000088C0F30E00E8490C54E6480088401C12
:1042C000E449088008460088322820DB0020088066
:1042D0001DE040F22441DE48FFF7CEFCB8B10020DB
:1042E000DB490888888800BFDB490978A0290AD102
:1042F000D9494978A02906D1D649098841F4004115
:10430000D44A118002E00021D24A118000BF10BDC2
:1043100010B540F22551D148FFF7AEFCA8B1CF4807
:10432000FFF7E8FBC4B2CE480088C0F30E00CD49C9
:104330000C54CB480088401CC949088008460088B6
:10434000322815DB0020088012E040F22441C348E7
:10435000FFF792FC60B10020C0490888091D088859
:1043600000BFBF49098841F40041BD4A118000BF28
:1043700010BD2DE9F0438BB040F22551BA48FFF74C
:104380007BFC78B3B848FFF7B5FBC7B2B7480078F5
:10439000012809D1B648B74909884754B54800886B
:1043A000401CB44908803EE2B348007880B901203F
:1043B000B24908700020B2490880AE480088C0F3B6
:1043C0000E00B0490F54AB480088401CA949088032
:1043D000A848008841F296218842E4DD0020A549E2
:1043E000088020E2FFE740F224419F48FFF744FCA9
:1043F0000028D8D000240025A04600269A4804882A
:10440000001D048800BF99480078012872D198489F
:10441000007861280BD197480088012807D1002037
:1044200094490880012198A0FFF7E3FEFAE1904843
:1044300000782B2813D18E4840786F280FD18C48F4
:1044400080786B280BD18B480088032807D1002087
:104450008849088007218DA0FFF7CBFEE2E1844860
:1044600080782B2829D18248C0784F2825D18048D0
:1044700000794B2821D17E4840793D281DD17D48C7
:104480000088142819D100207A490880082181A0C9
:10449000FFF7AFFE062400250CE07549081909AAAC
:1044A0007FA100F0FBFB7F4909984855A01C84B20E
:1044B000681C85B2122CF0DBB4E16D4880782B28A3
:1044C000B4D16B48C0784F28B0D1694800794B28E7
:1044D000ACD1674840793D28A8D166480088282893
:1044E000A4DD00206349088008216FA0FFF781FE4A
:1044F000002408E07CE05E48005D2C2801D1A04645
:1045000003E0601C84B2142CF5DB00BF08F101004D
:1045100084B2002565E05648005D2E280AD0544834
:10452000005D2C2806D05248005D30380AA9485555
:10453000681C85B24E48005D2E2826D1032D10D16F
:104540009DF82800642110FB01F09DF8291001EB73
:10455000810100EB41009DF82A1008445549885517
:1045600010E0022D0AD19DF829009DF8281001EBDA
:10457000810100EB41004F49885503E09DF8280078
:104580004C4988550025701C86B23948005D2C289E
:1045900025D1032D10D19DF82800642110FB01F0D6
:1045A0009DF8291001EB810100EB41009DF82A10D4
:1045B00008444049885510E0022D0AD19DF8290091
:1045C0009DF8281001EB810100EB41003949885525
:1045D00003E09DF8280037498855002503E0601C5A
:1045E00084B2342C97DB00BF00202049087019E109
:1045F00024480078A02877D122484078A02873D199
:1046000020488078F3287FD11A48008841F296210B
:1046100088426FD100201949087019490880062284
:1046200020491848401D00F0FDFB58B9114800888A
:1046300040F400400F4908801F48007818B9012055
:104640001D493BE052E03BE0004C004000140140BB
:1046500000100140A0000020F8400020004400406D
:10466000A20000202A410020004800401000002045
:1046700056540020A40000201E0000201B00002033
:104680001C0000205C4100206100000041542B4DC3
:1046900041430D0041542B57414E4E0D0000000088
:1046A000253258001100002041542B454E544D0D29
:1046B00000000000170000204E0000200870B1E04C
:1046C0009748407818B9012095494870AAE00FF240
:1046D000542913214846FFF78CFD00209649088095
:1046E0000120964908709DE00EE003E00020924909
:1046F000088097E09048008841F296218842DEDDEC
:1047000000208D4908808DE08D480078A02838D1A0
:104710008B484078A02834D189488078F02830D15F
:104720000020884908708849088006228749844803
:10473000401D00F077FB00BB7F48008840F400403C
:104740007D4908807648007818B9012074490870BE
:1047500068E07348407818B901207149487061E0F9
:104760000FF2EC1912214846FFF743FD0020724971
:10477000088001207149087054E000206E490880CB
:1047800050E06F480078022826D16D484078022812
:1047900022D16B48807802281ED167480088032800
:1047A0001AD120226FA101A800F0ADFB6748016873
:1047B000CDF816108088ADF81A007248006807908E
:1047C000002060490870604908805B4908801C210E
:1047D00001A8FFF70EFD25E059480078A0281ED15A
:1047E00057484078A0281AD155488078E32816D138
:1047F0000020544908705449088006225349504803
:10480000401D00F00FFB30B94B48008840F40040D9
:104810004949088006E000204749088002E000205E
:104820004549088000BF0BB0BDE8F08310B540F2E9
:1048300025515548FFF720FAA8B15348FFF75AF918
:10484000C4B252480088C0F30E0051490C544F487E
:104850000088401C4D49088008460088322821DB2A
:10486000002008801EE040F224414748FFF704FA88
:10487000C0B1002044490888091D088800BF444988
:104880000978A0290AD142494978A02906D13F498F
:10489000098841F400413D4A118002E000213B4A71
:1048A000118000BF10BD10B540F225513948FFF707
:1048B000E3F9A8B13748FFF71DF9C4B236480088BC
:1048C000C0F30E0035490C5433480088401C32496F
:1048D000088008460088322821DB002008801EE07E
:1048E00040F224412B48FFF7C7F9C0B10020294905
:1048F0000888091D088800BF28490978A0290AD11D
:1049000026494978A02906D12349098841F4004164
:10491000214A118002E000211F4A118000BF10BD12
:104920004E0000206368616E6E656C2069732062C2
:104930007573792E2E2E2E00A40000201E0000205C
:104940005C4100201B0000201C0000201100002002
:104950006368616E6E656C20697320627573792E71
:104960002E2E0000636F6E6E656374206973206F76
:104970006B2E2E2E2E2E31323334353637383930D9
:104980003131000017000020004C0040A60000203C
:10499000F253002000140140A800002024540020FD
:1049A0007FB505460C4601212020FEF728F8019529
:1049B000ADF800400020ADF80800ADF802006946EF
:1049C0000D48FEF7D4F937208DF80C0002208DF841
:1049D0000D008DF80E0001208DF80F0003A8FDF7E3
:1049E000CCF8012211460448FEF762FE012102487C
:1049F000FEF746FA7FBD000000140040014600208B
:104A00009B4A914203D2B1F1006F00D350E0994A22
:104A1000914204D2964A914201D3082048E0964A36
:104A2000914204D2934A914201D3102040E0934A2C
:104A3000914204D2904A914201D3182038E0904A22
:104A4000914204D28D4A914201D3202030E08D4A18
:104A5000914204D28A4A914201D3282028E08A4A0E
:104A6000914204D2874A914201D3302020E0874A04
:104A7000914204D2844A914201D3382018E0844AFA
:104A8000914204D2814A914201D3402010E0814AF0
:104A9000914204D27E4A914201D3482008E07E4AE6
:104AA000914204D27B4A914201D3502000E0582029
:104AB000704710B50446FDF709F9F320FDF707FC30
:104AC00002212046FDF756F9092801D000BFFEE774
:104AD000FDF709F910BD2DE9F04705460E461746CA
:104AE000FDF7F4F8F320FDF7F2FB2846FFF786FF09
:104AF0008046042101FB0650FFF780FF81464446B3
:104B00000AE002212046FDF735F9092801D000BF4F
:104B1000FEE704F1080084B24C45F2DB00240CE00F
:104B200057F824102846FDF73EFA092801D12D1D1B
:104B300001E000BFFEE7601C84B2B442F0DBFDF789
:104B4000D2F8BDE8F08710B50B46002105E00468F7
:104B500042F82140001D4C1CE1B29942F7DB10BD28
:104B60002DE9F04705460E461746FDF7AFF8F3204E
:104B7000FDF7ADFB2846FFF741FF8046022101FB10
:104B80000650FFF73BFF814644460AE002212046DB
:104B9000FDF7F0F8092801D000BFFEE704F1080096
:104BA00084B24C45F2DB00240DE037F8140081B2EA
:104BB0002846FDF721FA092801D1AD1C01E000BF0C
:104BC000FEE7601C84B2B442EFDBFDF78CF8BDE871
:104BD000F08710B50B46002105E0048822F811404B
:104BE000801C4C1CE1B29942F7DB10BD2DE9F04767
:104BF00005460E461746FDF769F8F320FDF767FBFB
:104C00002846FFF7FBFE8046A819FFF7F7FE81460E
:104C100044460AE002212046FDF7ACF8092801D0FD
:104C200000BFFEE704F1080084B24C45F2DB00242B
:104C30000BE0395D2846FDF70FFA092801D16D1CFC
:104C400001E000BFFEE7601C84B2B442F1DBFDF777
:104C50004AF8BDE8F08710B50B46002104E004785F
:104C60005454401C4C1CE1B29942F8DB10BD0000CA
:104C7000004000080080000800C000080000010893
:104C800000000208000004080000060800000808F0
:104C900000000A0800000C0800000E080FB400B560
:104CA0008DB010A9099000910B904FF0FF300A9041
:104CB00000200C90064878440690064878446A46DE
:104CC00007900F9909A800F089F90DB05DF814FB61
:104CD000430300005B0300002DE9FF5F1D464FF01A
:104CE000FF3B91464FF000085F46D5E90146A969B0
:104CF00001987F1C8847296A824688470028F6D198
:104D0000BAF1FF3F0CD0002E24F4C06419DD600618
:104D100014D5BAF12B0F09D0BAF12D0F0ED103E043
:104D2000584604B0BDE8F09F44F48064A969019836
:104D30007F1C8847761E8246002E02DDBAF1300FB6
:104D400003D0B9F1000F26D032E0A969761E019890
:104D50007F1C44F400748847002E824605DDBAF1BA
:104D6000780F06D0BAF1580F03D0B9F1000F10D068
:104D70001EE0B9F1000F02D0B9F1100F18D1A969E6
:104D8000761E01987F1C24F4007488478246102008
:104D900002E0082000E00A20814609E0A96908FB3A
:104DA0000908761E01987F1C44F4007488478246E7
:104DB000002E05DD4946504600F0FCF80028EDDAEB
:104DC000E96901988847A00502D46FF00100A8E7BF
:104DD000E00725D1600613D5600502D5C8F10000B3
:104DE00000E0404629680A1D2A600968220501D5AD
:104DF000087015E0220701D5088011E008600FE077
:104E00002868011D29600068210502D580F800800E
:104E100006E0210702D5A0F8008001E0C0F800807C
:104E200038467EE740EA010310B59B070FD1042AFC
:104E30000DD310C808C9121F9C42F8D020BA19BA65
:104E4000884201D9012010BD4FF0FF3010BD1AB1CA
:104E5000D30703D0521C07E0002010BD10F8013B1F
:104E600011F8014B1B1B07D110F8013B11F8014B46
:104E70001B1B01D1921EF1D1184610BD032A40F22E
:104E8000308010F0030C00F0158011F8013BBCF1EC
:104E9000020F624498BF11F801CB00F8013B38BF04
:104EA00011F8013BA2F1040298BF00F801CB38BF12
:104EB00000F8013B11F0030300F02580083AC0F030
:104EC000088051F8043B083A51F804CBA0E80810D8
:104ED000F5E7121D5CBF51F8043B40F8043BAFF30B
:104EE0000080D20724BF11F8013B11F801CB48BF65
:104EF00011F8012B24BF00F8013B00F801CB48BF9B
:104F000000F8012B704710B5203AC0F00B80B1E8D3
:104F10001850203AA0E81850B1E81850A0E81850EE
:104F2000BFF4F5AF5FEA027C24BFB1E81850A0E8F7
:104F3000185044BF18C918C0BDE810405FEA827C11
:104F400024BF51F8043B40F8043B08BF7047D20728
:104F500028BF31F8023B48BF11F8012B28BF20F8C9
:104F6000023B48BF00F8012B70474FF000020429B4
:104F7000C0F0128010F0030C00F06280CCF1040C41
:104F8000BCF1020F18BF00F8012BA8BF20F8022BBC
:104F9000A1EB0C0100F054B85FEAC17C24BF00F81B
:104FA000012B00F8012B48BF00F8012B7047704718
:104FB000704770473A2800D2303820F02002412A4A
:104FC00001D3A2F13700884201D34FF0FF30704780
:104FD000026811441378016018467047D160054992
:104FE00079445161044979441162002111611146EB
:104FF00000F054B8EDFFFFFFA1000000426842B18D
:10500000016811F8013B23B1521EC0E90012184695
:1050100070470121C160881E704742685AB1C36859
:10502000016843B983688B4205D0491E521CC0E910
:105030000012002070474FF0FF3070474FF0000221
:1050400000B5134694469646203922BFA0E80C507E
:10505000A0E80C50B1F12001BFF4F7AF090728BF59
:10506000A0E80C5048BF0CC05DF804EB890028BFD5
:1050700040F8042B08BF704748BF20F8022B11F0FE
:10508000804F18BF00F8012B704710B5044600F0A0
:10509000E5F90068005D00F0010010BD2DE9F34F57
:1050A0004FF0000A0C4656468DB001200C9001F1DD
:1050B0000C000B9062690B9801219047051E2DD0C2
:1050C000252D2CD0216A8847C0B162690B98012137
:1050D0009047216A88470028F7D16269411E0B98E2
:1050E000904700E0761CA1690D988847216A88479F
:1050F0000028F7D1E1690D988847DBE7A1690D9891
:105100008847A842074601D1761CD3E7E1690D988C
:1051100088477F1C02D1BAF1000F6FD06BE1626942
:105120000B9800273D46394690472A2804D16269EA
:105130000B98012190470125DFF8D08262690B9816
:1051400001219047A0F130010A290AD24745E5DC48
:1051500007EB870100EB4107303FDFD445F0100536
:10516000ECE7E90601D46FF000476C280AD04C2820
:1051700014D0682815D06A280DD074281CD07A283D
:105180001AD01DE062690B98012190476C2802D06B
:1051900045F0040514E045F002050DE045F020055A
:1051A0000AE062690B9801219047682802D045F017
:1051B000080505E045F4006562690B9801219047F8
:1051C000C4E9015765283DD019DC58287AD00CDC99
:1051D000452837D004DC252826D041289ED131E04F
:1051E00046282FD0472899D12CE05B2877D061281A
:1051F00028D063287CD0642823D15AE0F6E06F28B9
:1052000048D008DC66281DD067281BD0692821D02B
:105210006E2816D127E0702845D0732868D07528ED
:1052200047D078280DD14DE0A1690D9888472528F1
:1052300005463FF469AFE1690D9888476D1C3FF45E
:105240006AAFD8E00D9923466A466FF00100AFF3CC
:105250000080C5E045F0400023464FF0000260604A
:10526000A80736D43EE0E8077FF447AF2068011D69
:1052700021600068290501D506701BE7290701D5C3
:10528000068017E7A90703D5F117C0E9006111E708
:1052900006600FE745F0400023464FF008026060CB
:1052A000A80716D41EE040F60E0125EA0100606052
:1052B00016E045F0400023464FF00A026060A80760
:1052C00007D40FE045F040006060A80708D52346EA
:1052D00010220D996FF00100AFF3008080E007E02D
:1052E000102223460D996FF00100FFF7F5FC77E0DF
:1052F0004FF0000963284F46C8464B46CB4602D0C4
:105300005B2806D038E0E80601D40120A060012720
:1053100032E06269D4F80CB00B98012190475E2806
:1053200007D14FF0010949466269D4F80CB00B98D7
:105330009047216939B900210A4603AB43F821207F
:10534000491C0829FADBD8B3216949B308F10108DF
:1053500062690B98012190475D28F4D1B9F1000FE3
:1053600009D0002003A951F82020D24341F8202081
:10537000401C0828F7DB03AB2069002820794FEA9E
:1053800040701ED05B462246CDF80080CDE90197E3
:105390000D9900286FF0010020DAAFF300801FE0C4
:1053A000C11703AA00EBD1614B1121F01F0102EBE1
:1053B0008302411A13680120884003431360C7E742
:1053C00019E00D99224600286FF00100009702DADB
:1053D000AFF3008004E0AFF3008001E0AFF30080A2
:1053E00000280ADA401C06D10C9820B14FF0FF309B
:1053F0000FB0BDE8F08F5046FAE7E90701D10AF196
:10540000010A064400200C9054E60000CCCCCC0CE1
:10541000754600F035F8AE4605006946534620F063
:105420000700854618B020B5FCF790FBBDE820408A
:105430004FF000064FF000074FF000084FF0000B50
:1054400021F00701AC46ACE8C009ACE8C009ACE803
:10545000C009ACE8C0098D467047000010B500F0E7
:1054600013F8001D10BD00BFB900000010B50446C0
:10547000AFF300802046BDE81040FAF7D7BE000029
:10548000004870477454002000487047945400202E
:105490004FF0013C50F8042B51F8043B9A4221D1C3
:1054A000A2EB0C03934313EACC1317D150F8042B4F
:1054B00051F8043B9A4215D1A2EB0C03934313EA33
:1054C000CC130BD150F8042B51F8043B9A4209D16C
:1054D000A2EB0C03934313EACC13DBD04FF0000094
:1054E000704700BFD01A01BAB1FA81F101F018017A
:1054F00022FA01F0CB40C1F12001DBB2C0B2C01AE8
:105500002CFA01F3D11A914311EAC311E6D1704785
:1055100001491820ABBEFEE72600020070470000DC
:1055200010B500290AD00878002807D0054878442B
:10553000FFF7AEFF002801D0002010BD02487844DC
:1055400010BD0000920000008A0000004FF0407083
:10555000E1EE100A7047000041542B4D41430D000D
:1055600041542B454E544D0D000000002B2B2B00B9
:1055700073746172742075706461746520747261F3
:105580006E736D69742E2E2E2E000000757064618E
:105590007465207374617475733A000061000000D3
:1055A000D056000800000020AC000000C401000834
:1055B0007C570008AC0000202C5A0000E0010008D5
:1055C0001001000043000000F8FFFFFF00404040D2
:1055D00040404040404041414141414040404040C6
:1055E0004040404040404040404040404005020272
:1055F0000202020202020202020202020220202031
:10560000202020202020200202020202020290908C
:10561000909090901010101010101010101010108A
:1056200010101010101010100202020202028888DE
:1056300088888888080808080808080808080808EA
:1056400008080808080808080202020240000000D2
:10565000000000000000000000000000000000004A
:10566000000000000000000000000000000000003A
:10567000000000000000000000000000000000002A
:10568000000000000000000000000000000000001A
:10569000000000000000000000000000000000000A
:1056A00000000000000000000000000000000000FA
:1056B00000000000000000000000000000000000EA
:1056C00000000000000000000000000000000000DA
:1056D0000000000000000000000000000000701743
:1056E00000000000000000000000000000000000BA
:1056F00000000000000000000000000000000000AA
:105700000000000000000000000000000000000099
:105710000000000000000000000000000000000089
:1057200000000000A0A00007000000000000000032
:10573000705500088C5500086C5500089C550008F1
:105740005855000860550008007A030A0000000060
:105750000000000001020304060708090000000021
:105760000102030401020304060708090000000007
:0C5770000000000000000000000000002D
:040000050800018965
:00000001FF
