:020000040800F2
:10000000D85A0020A11C0008751A0008771A0008A9
:100010007B1A00087F1A0008831A000800000000FD
:10002000000000000000000000000000871A000827
:10003000891A0008000000008B1A00088D1A0008B9
:10004000BB1C0008BB1C0008BB1C0008BB1C000834
:10005000BB1C0008BB1C0008BB1C0008BB1C000824
:10006000BB1C0008BB1C0008BB1C0008BB1C000814
:10007000BB1C0008BB1C0008BB1C0008BB1C000804
:10008000BB1C0008BB1C0008BB1C0008BB1C0008F4
:10009000BB1C0008BB1C0008BB1C0008BB1C0008E4
:1000A000BB1C0008BB1C0008BB1C0008BB1C0008D4
:1000B000BB1C0008BB1C0008BB1C0008BB1C0008C4
:1000C000BB1C0008BB1C0008BB1C0008BB1C0008B4
:1000D000BB1C00080944000881440008E3440008F0
:1000E000BB1C0008BB1C0008BB1C0008BB1C000894
:1000F000BB1C0008BB1C0008BB1C0008BB1C000884
:10010000BB1C0008BB1C0008BB1C0008BB1C000873
:100110009D490008BB1C0008BB1C00084D160008C8
:10012000BB1C0008BB1C0008BB1C0008BB1C000853
:10013000BB1C0008BB1C0008BB1C0008BB1C000843
:10014000BB1C0008BB1C0008BB1C0008BB1C000833
:10015000BB1C0008BB1C0008BB1C0008174A000899
:10016000BB1C0008BB1C0008BB1C0008BB1C000813
:10017000BB1C0008BB1C0008BB1C0008BB1C000803
:10018000BB1C0008BB1C000800F002F800F045F89A
:100190000AA090E8000C82448344AAF10107DA45E2
:1001A00001D100F03AF8AFF2090EBAE80F0013F0EF
:1001B000010F18BFFB1A43F0010318475455000004
:1001C00074550000103A24BF78C878C1FAD8520795
:1001D00024BF30C830C144BF04680C6070470000C1
:1001E0000023002400250026103A28BF78C1FBD840
:1001F000520728BF30C148BF0B6070471FB505F0DC
:100200005DFA05F0F9F904000020002105F040FA3C
:10021000401C60601FBD10B510BD05F0B1F911465E
:10022000FFF7ECFF00F030FF05F0D8F903B4FFF75B
:10023000F2FF03BC05F024FA70B505460C4645F202
:10024000555002F051FA284602F051FA204602F0C9
:1002500051FA02F052FA02F055FA70BD10B502F0F0
:100260004CFA10BD0020FD490870FD490880FD4989
:100270000870FD49088070470120FA490870002085
:10028000F9490880F64908800120F4490870704750
:100290000020F2494870F2494880F2494870F2491A
:1002A000488070470120EF4948700020EE4948809F
:1002B000EB4948800120E949487070470020E74930
:1002C0008870E7498880E7498870E74988807047E7
:1002D0000120E44988700020E3498880E049888053
:1002E0000120DE498870704710B5E04A4FF4AF71C5
:1002F000DF4804F068FD10BD10B5FFF7AFFF72B620
:10030000DB4804F033FC044604F08BFCD74A4FF47E
:10031000AF71D74804F022FD62B6FFF79FFF10BD12
:100320002DE9F04107460D4690461E4600240DE09B
:1003300004EB440005EB40014246384604F02AFE37
:1003400010B92046BDE8F081601CC4B2B442EFDBB6
:100350004FF0FF30F6E710B5C6488078E2287DD030
:1003600003DC38B1D1287AD11CE1F02803D0F3287E
:10037000F9D1C3E01CE1C048BE490A6802600979AE
:100380000171401DBD490A68026089888180B948B1
:10039000C07AFF2846D1002420E004EB4400B8498D
:1003A00011F81000C0B10120B349087104EB4400FA
:1003B000B34901EB4000B0490B3102680A60808804
:1003C0008880FF200B3948748874C874022008752F
:1003D0001521A94803F0C5FF601CC4B2A9484078A4
:1003E000A042DADCFFF754FF0020A7494870A74974
:1003F0000870A7494870A7494870A24948709E48AC
:100400000B3000210160818000209B490871FF2092
:1004100048748874C874002008751521964803F044
:10042000A0FF6AE094480B309249491D0A680260B7
:100430004A684260097A017296484078002854DD83
:100440009048437806228E498A48401DFFF768FF8E
:100450000446601C002847D08E4801E088E0A6E0F2
:100460004078401E8B494870012083490871087507
:100470001521814803F075FF04EB4400804901EB2E
:1004800040000021016081808248407860BB4FF4C9
:100490000051814802F0E0F80A2003F051FD4FF4CA
:1004A00000517D4802F0DAF8322003F049FDFFF7F1
:1004B000EFFE002074494870744908707449487010
:1004C000704948706C480B30002101608180002029
:1004D00069490871FF2048748874C8740020087541
:1004E0001521654803F03DFF07E0012062490871CE
:1004F00008751521604803F034FF59E05D48C07A63
:10050000FF2814D165484078012830D1192064496A
:1005100048800020614948700120624948700020ED
:100520006149488050494880604948801FE0FFF792
:10053000AFFE002054494870544908704E484D4958
:100540000A68026009790171401D4C490A6802601D
:1005500089888180801D4749491D0A6802608A8810
:1005600082808979817112210B3803F0FAFE1FE035
:10057000414840490A68026009790171401D3F49BC
:100580000A68026089888180811D3A48401D02689E
:100590000A6082888A80807988711221364803F047
:1005A000E0FE05E00C21334803F0DBFE00E000BF75
:1005B00000BF10BD704710B5FFF750FE3C48807873
:1005C000E4287DD005DC48B1D1287AD0E32879D160
:1005D000F7E1F02803D0F328F9D124E11EE23548F1
:1005E000008848F2100188426DD127480078012820
:1005F00017D11A480078A0B90120254908702C4865
:10060000C07B2B4948712C480A6802608988818028
:10061000062103F0CDFEFFF72FFE142020490880AD
:1006200000E11948407801284ED10C484078A0B923
:100630000120174948701E48C07B1D4948711F485A
:100640000A68026089888180062103F05EFEFFF758
:1006500029FE142012494880E4E035E025000020FE
:1006600032000020280000202C000020B4070020C9
:1006700000C00008F8400020CC40002011000020FD
:1006800004030020030000204E0000201E00002074
:10069000060000200000002000040240220000208C
:1006A0003800002044000020480000203E000020C8
:1006B0005C410020A4000020120900209E1B0020A5
:1006C0001BE119E1A4E11CE0FE4880780128A7D1D4
:1006D000FD4880780028A3D10120FC498870FC489F
:1006E000C07BFB494871FB480A68026089888180A9
:1006F000062103F073FEFFF7EBFD1420F649888016
:1007000090E0F048007801282BD1EF48007840BBFA
:10071000EF48007900280FDDED480079EF490870B7
:10072000EF490870EA48007900EB40004200E849D0
:100730000F31EC4804F05AFC0120E4490870E44809
:10074000C07BE3494871E8480A6802608988818073
:10075000062103F02DFEFFF78FFD1420DE490880EF
:1007600060E0D848407801282BD1D748407840BB7A
:10077000D748007900280FDDD5480079D74948705F
:10078000D7494870D248007900EB40004200D04978
:100790000F31D64804F02AFC0120CC494870CC48DF
:1007A000C07BCB494871D2480A6802608988818041
:1007B000062103F0AAFDFFF775FD1420C649488005
:1007C00030E0C048807801282CD1BF48807848BBF1
:1007D000BF480079002811DDBD480079BF49887005
:1007E00008468078BE498870B948007900EB40001F
:1007F0004200B7490F31BF4804F0F8FB0120B3496C
:100800008870B348C07BB2494871B2480A68026038
:1008100089888180062103F0E1FDFFF759FD14204E
:10082000AD498880FAE0B448008849F296218842B0
:1008300061D1A448007801281CD1A3480078C8B928
:10084000A948A3490A6802600979017141F2872227
:100850009F490F31401D04F0C9FB0C21A24803F051
:10086000A7FD0120A5490870FFF706FD32209A492F
:10087000088040E09348407801281CD19248407895
:10088000C8B99B4892490A6802600979017141F22E
:1008900087228F490F31401D04F0A8FB0C2194489A
:1008A00003F033FD012095494870FFF7FBFC32202F
:1008B000894948801FE08348807801281BD18248FD
:1008C0008078C0B9834882490A6802600979017159
:1008D00041F287227E490F31401D04F087FB0C2135
:1008E0007C4803F07BFD012084498870FFF7F0FC11
:1008F00032207949888091E090E07548C07A0128DB
:1009000005D100207E4908707E49088058E000200B
:100910007D4908707A4908707A490880FFF79EFC83
:100920006A480078012812D1002068490870042123
:10093000764801F091FE0A2003F002FB042173487F
:1009400001F08CFE502003F0FBFAFFF78BFC5F48B0
:100950004078012814D100205C4948704FF40051C0
:100960006B4801F079FE0A2003F0EAFA4FF40051D7
:10097000674801F073FE502003F0E2FAFFF788FCAD
:1009800052488078012814D10020504988704FF4D3
:1009900080515F4801F060FE0A2003F0D1FA4FF465
:1009A00080515B4801F05AFE502003F0C9FAFFF76E
:1009B00085FC00204649C8720C21454803F0D1FC53
:1009C0002CE00421514801F047FE4FF400515048FB
:1009D00001F042FE4FF480514D4801F03DFE0A20E7
:1009E00003F0AEFA0421494801F038FE4FF40051FB
:1009F000474801F033FE4FF48051454801F02EFE88
:100A00000A2003F09DFA012000F0F0FF00F0F3FF50
:100A100041F296212E4804F060FB00BF00BF10BDDC
:100A200010B53C488078E2287CD003DC38B1D1286E
:100A300079D14EE1F02803D0F328F9D1F1E04FE16C
:100A4000354834490A68026009790171401D33490B
:100A50000A680260898881802E48C07AFF2878D190
:100A600000241EE004EB44001E4911F81000B0B150
:100A700004EB440001EB400027490B3102680A6097
:100A80008088888001200B39087102200875FF20BA
:100A900048748874C87415211F4803F062FC601CF8
:100AA000C4B20F480078A042DCDCFFF7DBFB00207B
:100AB000044908701A490870044908700749087009
:100AC000074931E04E0000202500002006000020EC
:100AD0005C4100202A2E0020380000200000002069
:100AE00003000020AC0000201209002004030020B5
:100AF0009E1B00205C050020A40000202200002096
:100B00000C0000200A000020090000200010024014
:100B100000040240F2530020B640002011000020E3
:100B20001E000020B9E0D5E00870FE4800210160F9
:100B300081800020FB490B3908710875FF2048743B
:100B40008874C8741521F7480B3803F00AFC67E075
:100B5000FFE7F448F4490A6802604A684260097A8B
:100B60000172F2480078002850DDF148037806222F
:100B7000F049ED48FFF7D4FB0446601C002844D040
:100B8000EA480078401EE94908700120E5490B3920
:100B9000087108751521E3480B3803F0E2FB04EBFC
:100BA0004400E44901EB4000002101608180DF48FE
:100BB000007850BB0421E04801F04EFD0A2003F00C
:100BC000BFF90421DC4801F049FD322003F0B8F9F7
:100BD000FFF748FB0020D9490870D9490870D94966
:100BE0000870D3490870CF4800210160818000203F
:100BF000CC490B3908710875FF2048748874C87493
:100C00001521C8480B3803F0ACFB09E00120C549A9
:100C10000B39087108751521C2480B3803F0A1FB88
:100C20005EE0C148401FC07AFF2814D1C648007852
:100C3000012831D11920C54908800020C249087017
:100C40000120C34908700020C2490880C2490880B9
:100C5000C249088020E0FFF705FB0020B749087073
:100C6000B7490870AF480B38AF49491F0A6802609E
:100C700009790171401DBA490A680260898881803A
:100C8000801DA9490A6802608A88828089798171F9
:100C900012210B3803F065FB22E0A2480B38A24971
:100CA000491F0A68026009790171401DAC490A6850
:100CB000026089888180811D9B4802680A60828861
:100CC0008A8080798871122196480B3803F049FB9D
:100CD00006E005E032219448401F04F0FEF900BF11
:100CE00000BF10BD10B59F488078E2287ED003DC9D
:100CF00038B1D1287BD13DE1F02803D0F328F9D1D8
:100D0000BBE039E1984897490A68026009790171A6
:100D1000401D93490A680260898881809148C07AA1
:100D2000FF283FD100241EE004EB44008F4911F856
:100D30001000B0B104EB440001EB40008A490B31D4
:100D400002680A608088888001200B3908710220BF
:100D50000875FF2048748874C8741521824803F010
:100D600000FB601CC4B272488078A042DCDCFFF754
:100D7000A5FA002071498870714908707149C870DE
:100D800079480B300021016081800020764908718C
:100D90000875FF2048748874C8741521724803F0E0
:100DA000E0FA69E070480B306E49491D0A6802603C
:100DB0004A684260097A01725C488078002853DDF5
:100DC0005B488378062269496648401DFFF7A8FA08
:100DD0000446601C002846D054488078401E534981
:100DE0008870012060490871087501E07FE0C2E069
:100DF00015215D4803F0B5FA04EB44005B4901EBB3
:100E000040000021016081804848807858BB4FF441
:100E10008051574801F020FC0A2003F091F84FF46C
:100E20008051534801F01AFC322003F089F8FFF793
:100E300045FA00204149887041490870414988704D
:100E40003B49887048480B300021016081800020B8
:100E5000454908710875FF2048748874C8741521C5
:100E6000414803F07EFA07E001203F490871087508
:100E700015213D4803F075FA7EE03A48C07AFF2814
:100E800014D131488078012830D119202F49888029
:100E900000202D49887001202D49887000202D499F
:100EA00088802D4988802D4988801FE0FFF706FA49
:100EB000002022498870224908702B4829490A6875
:100EC000026009790171401D25490A68026089881C
:100ED0008180811D2348401D02680A6082888A80C3
:100EE000807988711221204803F03BFA44E01E48C3
:100EF0001C490A68026009790171401D18490A6895
:100F0000026089888180801D1649491D0A68026037
:100F10008A8882808979817112210B3803F021FA45
:100F20002AE00000C1400020F7530020000000200C
:100F300003000020AC000020001002404E00002002
:100F40001E000020060000202200002038000020A3
:100F500044000020480000202C0000203E0000201B
:100F60001100002024540020E24000205C050020F5
:100F70000004024000E000BF00BF10BD1CB501210D
:100F8000022001F0ABFD0121082001F0A7FD0121A5
:100F9000102001F0A3FD4FF48040009001208DF857
:100FA000040002208DF8050000208DF806008DF861
:100FB00007006946FE4801F0D3FA012000908DF841
:100FC000040002208DF8050000208DF806008DF841
:100FD00007006946F74801F0C3FA4FF4004000905B
:100FE00001208DF8040002208DF8050000208DF806
:100FF00006008DF807006946ED4801F0B1FA0420BB
:10100000009001208DF8040002208DF805000020DA
:101010008DF806008DF807006946E74801F0A0FA50
:101020004FF40050009001208DF8040002208DF84C
:10103000050000208DF806008DF807006946DC48A1
:1010400001F08EFA4FF48050009001208DF80400DA
:1010500002208DF8050000208DF806008DF80700AD
:101060006946D34801F07CFA2020009000208DF8DA
:10107000040002208DF8050001208DF80700694664
:10108000CD4801F06DFA1CBD0EB5642002F0F6FEED
:101090004FF4A06000F024FE4FF4E13002F070FF46
:1010A0004FF4E13002F0C4FF4FF4E13003F017F8E1
:1010B0004FF4E13003F06BF84FF4E13003F0CEF879
:1010C000FFF75CFF472142F20F7003F021FD40F66D
:1010D000B83002F035FF0120B84908700321B84844
:1010E000006803F03EF9B5480078012818D115E0F2
:1010F0004FF48041AE4801F0B1FA4FF47A7002F03B
:101100001FFF4FF48041AA4801F0A6FA4FF47A700D
:1011100002F016FFA948007800B900E0E8E700BF38
:101120004FF48041A24801F099FA0121A14801F051
:1011300095FA4FF400419E4801F090FA4FF47A700E
:1011400002F0FEFE4FF48041994801F085FA01213A
:10115000984801F081FA4FF40041954801F07CFA7B
:101160004FF4FA710420FFF767F87C2001F00CFBC4
:10117000D8B1A0208DF800008DF80100E3208DF893
:10118000020000208DF803008DF804008D480168EE
:10119000CDF805108088ADF8090000208DF80B000F
:1011A0000C21684603F0DDF800BF4EE2FFF756F869
:1011B00085480078012829D100208349087004213E
:1011C0007D4801F049FA4FF40051794801F044FAA2
:1011D0004FF48051764801F03FFA0A2002F0B0FE49
:1011E0000421754801F03AFA4FF40051704801F0BB
:1011F00035FA4FF480516E4801F030FA0A2002F0BF
:101200009FFE012000F0F2FB00F0F5FB6F48007834
:10121000012851D100206D4908700421664801F071
:101220001BFA0A2002F08CFE0421634801F016FA32
:10123000322002F085FE66480078012821D1002086
:1012400063490870634864490A680260097901715A
:10125000002060490871481D5A490A68026089885F
:101260008180801D002101608180FF2059494874E0
:101270008874C874032008751521564803F071F866
:101280001AE0544854490A68026009790171002043
:1012900050490871481D4B490A680260898881805D
:1012A000801D0021016081808171032049494874BB
:1012B0001221484803F055F844484078012853D19A
:1012C0000020424948704FF40051394801F0C4F9F8
:1012D0000A2002F035FE4FF40051354801F0BEF906
:1012E000322002F02DFE3A484078012821D100201A
:1012F0003749487039483A490A68026009790171EA
:10130000002036490871481D2E490A680260898804
:101310008180801D002101608180FF202F49487459
:101320008874C8740320087515212C4803F019F837
:101330001AE02A482A490A680260097901710020E6
:1013400026490871481D1F490A6802608988818002
:10135000801D002101608180817103201F49487434
:1013600012211E4802F0FDFF18488078012872D132
:101370000020164988704FF480510D4801F06CF937
:101380000A2002F0DDFD4FF48051094801F066F9B2
:10139000322002F0D5FD0E488078012840D100208F
:1013A0000B4988700F4810490A68026009791DE0EE
:1013B00000040240000C0240001002401000002017
:1013C0006800002011000020510000201F000020B4
:1013D00006000020B640002012090020CC4000206A
:1013E0009E1B0020E24000202A2E002001710020D8
:1013F000FE490871481DFE490A680260898881809B
:10140000801D002101608180FF20F84948748874A4
:10141000C874032008751521F44802F0A2FF1AE0F1
:10142000F248F4490A680260097901710020EF4925
:101430000871481DEE490A68026089888180801D14
:1014400000210160818081710320E84948741221E4
:10145000E64802F086FFE848008800F40040B0B19A
:10146000FFF7A9F80020E4490880E448007810B1AB
:10147000E248407828B9E2A41221204602F071FF28
:1014800005E0E4A41221204602F06BFF00BFE6480D
:10149000008800F4004020B10020E3490880FFF7F5
:1014A00021FCE248008800F4004020B10020DF4920
:1014B0000880FFF7B5FADE48008800F4004020B14C
:1014C0000020DB490880FEF746FFDA480078012853
:1014D00025D10020D7490870D7480088B0F5947FFF
:1014E00009DAD5490A88D549102303FB02101946A9
:1014F00002F05EFF0EE00020CF490880D04908705E
:10150000D04908804FF48041CF4801F0A5F8002071
:10151000CE490870C8480088401CC7490880C548A3
:101520004078012824D10020C2494870C248408830
:10153000B0F5947F09DAC0494A88C549102303FBF6
:101540000210194602F0E1FE0DE00020BA49488081
:10155000BB494870BB4948800121BE4801F07CF876
:101560000020BA490870B4484088401CB2494880FD
:10157000B0488078012826D10020AE498870AE4856
:101580008088B0F5947F0ADAAB498A8899490C3192
:10159000102303FB0210194602F020FF0EE000208A
:1015A000A5498880A6498870A64988804FF40041E3
:1015B000A54801F051F80020A44908709E48808891
:1015C000401C9D498880A448007801283DD1002016
:1015D000A14908708948007801280FD19F480078F8
:1015E00060B901209E49087006219E4802F0E0FE85
:1015F000FEF742FE14209C49088026E07F48407890
:1016000001280FD19548407860B90120944948706D
:101610000621944802F079FEFEF744FE1420924918
:10162000488012E07548807801280ED18B48807878
:1016300058B901208A49887006218A4802F0CEFEF6
:10164000FEF746FE142088498880AFE510B50121D9
:10165000864802F0FCF800287ED02021844800F063
:10166000E1FF70B983480088401C82490880084621
:10167000008841F2883188422EDD00207D490880B3
:101680002AE07C4800880A280BDB7A480088B0F5FD
:10169000FA6F06DC0120784908700020754908803F
:1016A0001AE074480088B0F5FA6F0CDD71480088C4
:1016B00041F28831884206DC02206F490870002020
:1016C0006C49088008E06B48008841F28831884204
:1016D00002DD00206749088068480078012822D18F
:1016E00058480088401C574908800846008840F642
:1016F000B831884217DDFEF7B5FD00203F4908707C
:101700005F4908704FF480414F4800F0A5FF00206A
:10171000494908804A4908705A4908804B4908706D
:1017200001205949087055484078012823D145487F
:101730004088401C434948800846408840F6B831FC
:10174000884218DDFEF7A4FD00202C4948704C4962
:10175000487001213F4800E047E100F07DFF002094
:1017600035494880364948704649488037490870AD
:1017700001204549487041488078012822D13148EC
:101780008088401C2F4988800846808840F6B83100
:10179000884217DDFEF792FD00201849887038490D
:1017A00088704FF40041284800F056FF002022497D
:1017B0008880234988703349888024490870012033
:1017C0003149887025480078012866D12F48008863
:1017D000401C2E4908800846008823490988884211
:1017E0005BDD00202949088052E056E0E2400020FD
:1017F000110000202A2E0020A40000204E0000200E
:101800006368616E6E656C2069732069646C652E17
:101810002E2E00006368616E6E656C206973206215
:101820007573792E2E2E0000A8000020A60000203F
:10183000A00000205A0000203E0000201E090020C9
:10184000440000202C000020000402401E00002064
:10185000AA1B0020000C02400C00002025000020E4
:101860000600002054000020380000200014004032
:1018700000100240520000205100002028000020EB
:1018800022000020480000201F000020320000201D
:101890004FF480415F4800F0EAFE5F48407801283D
:1018A00011D15E484088401C5C4948800846408809
:1018B0005B494988884206DD00205849488001215B
:1018C000584800F0D4FE54488078012812D153487B
:1018D0008088401C51498880084680885049898802
:1018E000884207DD00204D4988804FF40041494877
:1018F00000F0BDFE4C48007801280DD14B4800880F
:10190000401C4A49088008460088022804DD00205F
:1019100008800120464908704348407801280DD1CD
:1019200042484088401C4149488008464088022877
:1019300004DD0020488001203D4948703A48807805
:1019400001280DD139488088401C384988800846D4
:101950008088022804DD00208880012034498870B6
:101960003448007801281AD133480088401C324995
:10197000088008460088502811DD4FF48041254832
:1019800000F075FE00202C4908802A4908702B4978
:1019900008802BA41221204602F0E3FC00BF2D4852
:1019A000007801281DD12C480088401C2A49088055
:1019B0000846008829490988884212DD0020264906
:1019C00008802748007820B901202549087025495A
:1019D00008702348407820B90120214948702149E6
:1019E00008700121204801F043FF10BD00F0010103
:1019F00081F313887047BFF34F8F1C48006800F4D1
:101A0000E0601B490843001D18490860BFF34F8F71
:101A100000BFFEE700040240250000203200002045
:101A200038000020000C0240440000204800002044
:101A30005A0000201B0000201C000020A4000020F1
:101A400064617461207265636576206572722E2E02
:101A50002E2E0000090000200A0000200E000020A9
:101A60004E0000200C000020001400400CED00E0AF
:101A70000000FA05704700BFFEE700BFFEE700BFA9
:101A8000FEE700BFFEE770477047704770470000F1
:101A90000CB50020019000907648006840F480303A
:101AA0007449086000BF7348006800F4003000907B
:101AB0000198401C0190009818B90198B0F5A04F0A
:101AC000F1D16C48006800F4003010B101200090A2
:101AD00001E0002000900098012846D16548403080
:101AE000006840F0805063494031086062480068F7
:101AF00040F44040604908605E48083000685D4935
:101B0000083108600846006840F400400860084654
:101B1000006840F4A05008605848091F0860081F7A
:101B2000006840F08070091F086000BF51480068DD
:101B300000F000700028F9D040F2057050490860AC
:101B40004C480830006820F003004A49083108601A
:101B50000846006840F00200086000BF45480830B1
:101B6000006800F00C000828F8D10CBD10B54548FD
:101B7000006840F47000434908603E48006840F047
:101B800001003C49086000203A49083108603948A2
:101B900000683D490840374908603C48091D086015
:101BA000081F006820F48020091F086000203149C8
:101BB0000C310860FFF76CFF4FF00060314980394D
:101BC000086010BD70B5002000220223002402210D
:101BD000284D08352D6805F00C0020B1042806D0EA
:101BE000082834D107E02A4D2A4E356033E02A4DCB
:101BF000284E35602FE01F4D2D1D2D68C5F38054F4
:101C00001C4D2D1D2D6805F03F0154B1224DB5FB33
:101C1000F1F5184E361D3668C6F3881605FB06F238
:101C200009E01B4DB5FBF1F5124E361D3668C6F3C3
:101C3000881605FB06F20F4D2D1D2D68C5F30145D5
:101C40006D1C6B00B2FBF3F5124E356003E0104DD6
:101C5000104E356000BF00BF064D08352D68C5F336
:101C600003150E4E705D0B4D2D68C540094E356055
:101C700070BD00000038024000700040085440076A
:101C8000003C024088ED00E0FFFFF6FE103000242B
:101C90000024F4007800002000127A007C0000206C
:101CA0000948804709480047FEE7FEE7FEE7FEE7F0
:101CB000FEE7FEE7FEE7FEE7FEE7FEE7044805492C
:101CC000054A064B704700006D1B0008890100089B
:101CD000D8540020D85A0020D8560020D8560020CA
:101CE00032490143324A1160704770B50021002328
:101CF0000F22C4781CB32E4C246804F4E064C4F5AD
:101D0000E064C4F30721C1F10404E3B20A4144785A
:101D10009C40E1B28478144021430C07210E254CED
:101D200005786155047804F01F050124AC4005785E
:101D30006D11AD0005F1E025C5F8004109E004781A
:101D400004F01F050124AC401B4D0678761145F8C0
:101D5000264070BD194A0A400243154B1B1F1A60EA
:101D6000704739B1124A121D12680243104B1B1DF5
:101D70001A6006E00E4A121D126882430C4B1B1DAE
:101D80001A607047042808D14FF0E021096941F03A
:101D900004014FF0E022116107E04FF0E0210969F2
:101DA00021F004014FF0E022116170470000FA05B4
:101DB0000CED00E000E400E080E100E080FFFF1FA8
:101DC000FE4A1070704730B1FC49096841F48071D7
:101DD000FA4A116005E0F949096821F48071F74A6F
:101DE0001160704730B1F549096841F40071F34A58
:101DF000116005E0F149096821F40071EF4A1160B2
:101E0000704730B1ED49096841F48061EB4A1160D7
:101E100005E0EA49096821F48061E84A11607047E9
:101E2000E648006840F40060E44908607047E34811
:101E3000006840F48050E14908607047DF48103086
:101E4000006800F0004028B1DD48DC49091D086049
:101E5000DC4808607047D9481030006840F0004006
:101E6000D6491031086070470920D4490C310968FF
:101E700001F48031B1F5803F01D1012020E0CF494C
:101E80000C31096801F0100109B1062018E0CB49B6
:101E90000C31096801F4807109B1022010E0C749D2
:101EA0000C31096801F0EF0109B1072008E0C349CE
:101EB0000C31096801F0020109B1082000E0092095
:101EC000704708B509200090FFF7CEFF009002E0B0
:101ED000FFF7CAFF00909DF800000128F8D09DF898
:101EE000000008BD70B504460A460026092502B95F
:101EF00009E0012A01D1160205E0022A01D11602E9
:101F000001E04FF44076FFF7DCFF0546092D2DD1A7
:101F1000AA481030006820F44070A84910310860C9
:101F200008460068304308600846006820F0F80062
:101F300008600846006844F0020108439F491031D8
:101F400008600846006840F480300860FFF7B9FF79
:101F500005469A481030006820F002009749103179
:101F600008600846006820F0F8000860284670BD48
:101F700030B5024600250924FFF7A3FF044602B945
:101F800009E0012A01D1150205E0022A01D115025A
:101F900001E04FF44075092C20D1884810300068CA
:101FA00020F44070854910310860084600682843D5
:101FB00008600846006840F00400086008460068B1
:101FC00040F480300860FFF77CFF04467B48103007
:101FD000006820F00400794910310860204630BDC7
:101FE00030B5024600250924FFF76BFF044602B90D
:101FF00009E0012A01D1150205E0022A01D11502EA
:1020000001E04FF44075092C20D16C481030006875
:1020100020F4407069491031086008460068284380
:1020200008600846006840F0040008600846006840
:1020300040F480300860FFF744FF04465F481030EA
:10204000006820F004005D4910310860204630BD72
:1020500030B5024600250924FFF733FF044602B9D4
:1020600009E0012A01D1150205E0022A01D1150279
:1020700001E04FF44075092C20D150481030006821
:1020800020F440704D49103108600846006828432C
:1020900008600846006840F4004008600846006890
:1020A00040F480300860FFF70CFF044643481030CE
:1020B000006820F40040414910310860204630BDDE
:1020C00070B5064614461D460922FFF7FAFE024681
:1020D000092A1ED139481030006820F44070374971
:1020E000103108600846006840F4407008600846F7
:1020F000006840F00100086034607560FFF7E1FEA1
:1021000002462E481030006820F001002B491031A3
:102110000860104670BD30B502460C460925FFF731
:10212000D0FE0546092D1DD124481030006820F44A
:1021300040702249103108600846006840F4007081
:1021400008600846006840F0010008601460FFF76E
:10215000B8FE054619481030006820F00100174904
:1021600010310860284630BD30B502460C460925BE
:10217000FFF7A7FE0546092D1DD110481030006855
:1021800020F440700D49103108600846006840F4A2
:10219000807008600846006840F001000860148004
:1021A000FFF78FFE054605481030006820F001005B
:1021B000024910310860284630BD0000003C024052
:1021C00023016745AB89EFCD30B502460C460925A2
:1021D000FFF777FE0546092D17D19B48006820F4CC
:1021E0004070994908600846006808600846006821
:1021F00040F0010008601470FFF763FE0546924846
:10220000006820F0010090490860284630BD8E48E3
:10221000001D006800F0010028B18C488A49083987
:1022200008608B48086070478748001D006840F0D0
:1022300001008549091D0860704730B502460C460B
:102240000925FFF73EFE0546092D10D13CB17E4819
:10225000801D008890437C49891D088007E07A48EA
:10226000801D008891B208437749891D088030BDE0
:1022700030B502460C460925FFF723FE0546092D19
:1022800010D13CB170480A30008890436E490A3141
:10229000088007E06C480A30008891B208436A4918
:1022A0000A31088030BDFF21674AD21D127802F042
:1022B0007F0140EA0102644BDB1D1A70704730B5A4
:1022C00002460C460925FFF7FCFD0546092D10D1F5
:1022D00044B15D48801D008891B208435A49891D68
:1022E000088006E05848801D008890435649891DA3
:1022F000088030BD30B502460C460925FFF7E1FDE8
:102300000546092D10D144B14F480A30008891B2DA
:1023100008434D490A31088006E04B480A300088DE
:10232000904349490A31088030BD10B5024609245E
:10233000FFF7C7FD0446092C02D14348401D027037
:1023400010BDF0B504460D46FF260927FFF7B9FD7D
:102350000746092F0BD13C48001D007800F00F06FE
:1023600045EA0600104320433749091D0870F0BDB7
:102370003549091D097821F01001334A121D1170E9
:10238000114609780143117070472F49091D0978DA
:1023900021F00C012C4A121D1170114609780143DD
:1023A0001170704700B509222748001D007840F0E1
:1023B00002002549091D0870FFF783FD02461046FB
:1023C00000BD2148001D0068C0F3471070471E483B
:1023D000801D008870471C480A30008870471A48E2
:1023E000801D0088704718480A3000887047002018
:1023F0001549491D0978AA2901D0012000E00020D3
:1024000070471148001D007800F00C00704729B19A
:102410000D4A126802430C4B1A6004E00A4A126823
:102420008243094B1A60704701460020064A121F7A
:1024300012680A400AB1012000E0002070470249FA
:10244000091F086070470000103C02403B2A190831
:102450007F6E5D4C10B504469848844208D1012136
:10246000084600F0A6FB0021012000F0A2FB76E068
:102470009348844208D10121022000F09AFB0021F8
:10248000022000F096FB6AE08E48844208D10121C8
:10249000042000F08EFB0021042000F08AFB5EE0A7
:1024A0008948844208D10121082000F082FB0021E4
:1024B000082000F07EFB52E08448844208D10121CC
:1024C000102000F076FB0021102000F072FB46E0A7
:1024D0007F48844208D10121202000F06AFB0021BE
:1024E000202000F066FB3AE07A48844208D10121BE
:1024F000402000F05EFB0021402000F05AFB2EE05F
:102500007548844208D10121802000F052FB00214F
:10251000802000F04EFB22E07048844208D1012167
:10252000801500F046FB0021A01500F042FB16E0EC
:102530006B48844208D10121401500F03AFB00218C
:10254000601500F036FB0AE06648844207D101219D
:10255000001500F02EFB0021201500F02AFB10BD15
:10256000F0B50A4600210023002400BF3DE001250C
:1025700005FA01F3156805EA03049C4234D10568A5
:102580004F000326BE40B543056015794E00B540A7
:102590000668354305601579012D02D01579022DA5
:1025A00016D185684F000326BE40B5438560557936
:1025B0004E00B540866835438560456801268E40EB
:1025C000B5434560456896798E40B6B2354345605F
:1025D000C5684F000326BE40B543C560D5794E009F
:1025E000B540C6683543C560491C1029BFD3F0BD4E
:1025F0004FF6FF7101600021017141718171C1715C
:10260000704708B54FF480320092009A0A43009256
:10261000009AC261C161009AC261C2690092C26936
:10262000009208BD0246002013690B400BB1012047
:1026300000E0002070470146086980B270470246FA
:10264000002053690B400BB1012000E000207047CF
:102650000146486980B270470183704741837047E3
:102660000AB1018300E041837047416170474269CC
:102670004A4042617047F0B5002300244D07ED0E3B
:1026800002FA05F3CE1000F1200555F826504E074A
:10269000F70E0F26BE40B543CF1000F1200646F8D6
:1026A0002750CE1000F1200555F8265045EA0304C6
:1026B000CE1000F1200545F82640F0BD0000024094
:1026C0000004024000080240000C024000100240DA
:1026D0000014024000180240001C0240002002408A
:1026E00000240240002802400E49086070470D494E
:1026F000486070470B49886070474AF6AA2009492C
:10270000086070474CF6CC400649086070470146A7
:102710000020044AD2680A400AB1012000E00020EB
:102720007047000000300040F948006840F00100A8
:10273000F74908600020F64908310860F44800684D
:10274000F4490840F2490860F348091D0860F3485D
:10275000EF4984310860F0481038091D0860EC48E2
:10276000006820F48020EA4908600020E8490C3124
:102770000860E7498C31086070470021E44A921CE8
:10278000117011460870704710B5014600220023F1
:1027900000204A11012A02D1DD4C236808E0022AF8
:1027A00003D1DB4C7034236802E0D94C74342368C5
:1027B00001F01F02012494401C400CB1012000E0F4
:1027C000002010BD38B5002000900024002500BF77
:1027D0003120FFF7D9FF05460098401C0090009873
:1027E000B0F5A04F01D0002DF2D03120FFF7CCFF83
:1027F00008B1012400E00024204638BD0146002035
:10280000C34A106820F0F80040EAC1001060704729
:10281000C349086070470021BD4A703211701170C1
:10282000012802D004280AD104E00121B84A7032FC
:10283000117005E00521B64A7032117000E000BF4A
:1028400000BF7047B7490860704770B5049C41EA03
:1028500082150126C6EB530645EA0645054345EABF
:102860000465AB4E361D356070BDAD4908667047D6
:10287000820142EA0172A64B84331A607047A8496C
:102880008866704710B5830143EA016343EA027327
:102890009F4C8834236010BDA14908677047A04948
:1028A000C864704702460020994B0833186820F02E
:1028B000EC6042EA01031843954B083318607047F7
:1028C00002460020924B0833186820F0784042EA14
:1028D000010318438E4B08331860704701460020EF
:1028E0008B4A0832106820F00300084310607047DC
:1028F00087480830006800F00C007047014600204F
:10290000834A0832106820F0F000084310607047D6
:10291000014600207E4A0832106820F4E050084347
:102920001060704701460020794A0832106820F490
:10293000604040EAC10010607047F0B500210022FD
:102940000024022500260223714F08373F6807F054
:102950000C0121B1042905D0082937D105E0724FB7
:10296000076036E0714F076033E0694F3F1D3F68F5
:10297000C7F38056664F3F1D3F6807F03F036EB1B7
:102980006A4FB7FBF3F7DFF888C10CF1040CDCF8F1
:1029900000C0CCF3881C07FB0CF40CE0624FB7FBC3
:1029A000F3F7DFF86CC10CF1040CDCF800C0CCF3D9
:1029B000881C07FB0CF4564F3F1D3F68C7F30147C7
:1029C0007F1C7D00B4FBF5F7076002E0564F0760FF
:1029D00000BF00BF4E4F08373F6807F0F0010909FC
:1029E000534F7A5C0768D7404760494F08373F68C4
:1029F00007F4E051890A4E4F7A5C4768D7408760F8
:102A0000434F08373F6807F46041490B484F7A5CF1
:102A10004768D740C760F0BD002100F44072B2F5AE
:102A2000407F0AD13A4A0832116821F4F811414A2C
:102A300002401143364A08321160354A703212683A
:102A4000C0F30B031A43324B70331A607047354999
:102A50004439086070473349403908607047364947
:102A60000860704701460020294A8C32106820F027
:102A70001F004A1E1043264A8C32106070470146E0
:102A80000020234A8C32106820F4F8504A1E40EA95
:102A900002201F4A8C3210607047014600201C4AF9
:102AA0008C32106820F440100843106070470146D3
:102AB0000020174A8C32106820F440000843106050
:102AC000704701460020124A8C32106820F44030D2
:102AD00008431060704719490860704739B10C4AC3
:102AE0003032126802430A4B30331A6006E0084A5B
:102AF000303212688243064B30331A607047F9B1A6
:102B0000034A343212680243014B34331A601CE02A
:102B100000380240FFFFF6EA1030002400300020A9
:102B200000004742800E47420024F40000127A0061
:102B30008C000020FFFCFF0F5C014742E011474280
:102B40008F4A126882438E4B1A60704739B18C4AA3
:102B5000121D126802438A4B1B1D1A6006E0884A48
:102B6000121D12688243864B1B1D1A60704739B1D3
:102B7000834A0C3212680243814B0C331A6006E020
:102B80007F4A0C32126882437D4B0C331A607047C7
:102B900039B17B4A103212680243794B10331A6004
:102BA00006E0774A103212688243754B10331A6080
:102BB000704739B1724A243A12680243704B243B81
:102BC0001A6006E06E4A243A126882436C4B243B3A
:102BD0001A60704739B16A4A203A12680243684B5A
:102BE000203B1A6006E0664A203A12688243644B32
:102BF000203B1A60704739B1614A1C3A126802439F
:102C00005F4B1C3B1A6006E05D4A1C3A1268824327
:102C10005B4B1C3B1A60704739B1594A143A126831
:102C20000243574B143B1A6006E0554A143A1268A7
:102C30008243534B143B1A60704739B1504A103AE3
:102C4000126802434E4B103B1A6006E04C4A103AA1
:102C5000126882434A4B103B1A60704739B1484AA8
:102C60001C3212680243464B1C331A6006E0444A89
:102C70001C3212688243424B1C331A60704739B1D0
:102C80003F4A2032126802433D4B20331A6006E06F
:102C90003B4A203212688243394B20331A60704716
:102CA00039B1374A243212680243354B24331A6053
:102CB00006E0334A243212688243314B24331A60CF
:102CC000704739B12E4A2C32126802432C4B2C33F8
:102CD0001A6006E02A4A2C3212688243284B2C33B1
:102CE0001A60704739B1264A303212680243244BC9
:102CF00030331A6006E0224A303212688243204B99
:102D000030331A607047012808D11D493C310968E9
:102D100041F008011A4A3C32116007E018493C3181
:102D2000096821F00801164A3C321160704739B138
:102D3000134A273A12780243114B273B1A7006E0D8
:102D40000F4A273A127882430D4B273B1A7070477F
:102D50000B484030006840F08070094940310860FD
:102D6000704701460020064A283A12680A400AB114
:102D7000012000E0002070470149263908707047A3
:102D80003438024010B50446FE48844208D101217F
:102D90000846FFF752FF00210120FFF74EFF9DE09C
:102DA000B4F1804F08D101210846FFF735FF00211B
:102DB0000120FFF731FF91E0F348844208D101215F
:102DC0000220FFF729FF00210220FFF725FF85E001
:102DD000EE48844208D101210420FFF71DFF0021A5
:102DE0000420FFF719FF79E0E948844208D1012166
:102DF0000820FFF711FF00210820FFF70DFF6DE00D
:102E0000E448844208D101211020FFF705FF00218A
:102E10001020FFF701FF61E0DF48844208D1012163
:102E20002020FFF7F9FE00212020FFF7F5FE55E0F6
:102E3000DA48844208D101210220FFF7FEFE00217A
:102E40000220FFF7FAFE49E0D548844209D101216A
:102E50000804FFF7F2FE00214FF48030FFF7EDFE8B
:102E60003CE0D048844209D101214804FFF7E5FE47
:102E700000214FF40030FFF7E0FE2FE0CA48844203
:102E800009D101218804FFF7D8FE00214FF48020EA
:102E9000FFF7D3FE22E0C548844208D1012140203B
:102EA000FFF7BAFE00214020FFF7B6FE16E0C0484B
:102EB000844208D101218020FFF7AEFE002180204E
:102EC000FFF7AAFE0AE0BB48844207D10121801522
:102ED000FFF7A2FE0021A015FFF79EFE10BD002205
:102EE0000288A84B98420ED0AC4B98420BD0B0F160
:102EF000804F08D0A44B984205D0A44B984202D0F2
:102F0000A34B984204D14FF68F731A404B881A4353
:102F1000A04B984207D0A04B984204D04FF6FF43F5
:102F20001A400B891A4302804B68C3620B880385E1
:102F3000944B984202D0994B984201D18B7A0386E8
:102F40000123838270474FF0FF31416000210180EF
:102F500001814180817270470185828270470A46F3
:102F6000002101884FF68F7319401143018070478B
:102F700041627047C16270470146486A7047014626
:102F8000088D704721B1028842F00202028004E0FD
:102F900002884FF6FD731A400280704721B1028803
:102FA00042F00402028004E002884FF6FB731A40EC
:102FB0000280704721B1028842F08002028004E062
:102FC00002884FF67F731A400280704702884FF6DE
:102FD000F7731A40028002880A4302807047028811
:102FE0004FF6FF431A40028002880A43028070476E
:102FF00021B1028842F00102028004E002884FF60B
:10300000FE731A400280704770B50024002200232E
:10301000058C4FF6FE7635400584028C8388048B40
:103020004FF68F752C40B51E2C400D882C43751E15
:103030002A408D892A434D882A43524DA84202D006
:10304000564DA84213D14FF6F7752A40CD892A4331
:103050004FF6FB752A408D882A434FF6FF652B40BB
:103060004FF6FF552B400D8A2B434D8A2B4383800F
:1030700004838D684563028470BD70B5002400220E
:103080000023058C4FF6EF7635400584028C83884B
:10309000048B48F6FF752C404FF6FF452C400D88F9
:1030A0004FF6FF7606EA05252C434FF6DF752A40DA
:1030B0008D8906EA05152A434D8806EA05152A4337
:1030C000304DA84202D0354DA8421DD14FF67F7534
:1030D0002A40CD894FF6FF7606EA05152A434FF6BA
:1030E000BF752A408D8806EA05152A434FF6FF353D
:1030F0002B404FF2FF752B400D8A06EA85052B43C6
:103100004D8A06EA85052B43838004838D68856399
:10311000028470BD70B5002400220023058C4FF698
:10312000FF6635400584028C8388848B4FF68F754B
:103130002C404FF6FC752C400D882C434FF6FF5564
:103140002A408D894FF6FF7606EA05252A434D88E9
:1031500006EA05252A430B4DA84202D00F4DA8428E
:1031600038D14FF2FF752A40CD894FF6FF7606EA37
:1031700005252A434FF6FF352A408D8806EA0525A6
:103180002A4319E00000014000040040000800400C
:10319000000C0040001000400014004000040140FA
:1031A0000040014000440140004801400018004038
:1031B000001C0040002000404EF6FF752B404DF6ED
:1031C000FF752B400D8A06EA05152B434D8A06EA4A
:1031D00005152B43838084838D68C563028470BD8D
:1031E00070B5002200230024058C4EF6FF76354092
:1031F0000584038C8488828B48F6FF752A404FF63D
:10320000FF452A400D884FF6FF7606EA05252A433A
:103210004DF6FF752B408D8906EA05352B434D8809
:1032200006EA05352B43FE4DA84202D0FD4DA842CB
:1032300008D14BF6FF752C400D8A4FF6FF7606EA53
:1032400085152C43848082838D680564038470BD5A
:10325000002101804180818081608181C181018262
:103260004182704770B5034600200024184618308C
:1032700001258D40ACB21D8CA5431D8409B10829E0
:103280000AD100EB610005684FF68F763540056086
:103290000568154305600FE00D1FC5F34E05284472
:1032A000056848F6FF763540056005684FF6FF76FD
:1032B00006EA02263543056070BD416370478163AD
:1032C0007047C1637047016470470A460021018B53
:1032D0004FF68F7319401143018370470A4600214E
:1032E000018B48F6FF7319404FF6FF7303EA022380
:1032F0001943018370470A460021818B4FF68F7373
:1033000019401143818370470A460021818B48F69A
:10331000FF7319404FF6FF7303EA022319438183B9
:1033200070470A460021018B4FF6F773194011438D
:10333000018370470A460021018B4FF2FF73194049
:103340004FF6FF7303EA02231943018370470A46CD
:103350000021818B4FF6F773194011438183704729
:103360000A460021818B4FF2FF7319404FF6FF731D
:1033700003EA02231943818370470A460021018B27
:103380004FF6FB7319401143018370470A46002131
:10339000018B4FF6FF3319404FF6FF7303EA022308
:1033A0001943018370470A460021818B4FF6FB7356
:1033B00019401143818370470A460021818B4FF6E3
:1033C000FF3319404FF6FF7303EA02231943818349
:1033D00070470A460021018B4FF67F731940114355
:1033E000018370470A460021018BC1F30E014FF69D
:1033F000FF7303EA02231943018370470A46002141
:10340000818B4FF67F7319401143818370470A46C1
:103410000021818BC1F30E014FF6FF7303EA0223F3
:103420001943818370470A460021018C4FF6FD73D2
:1034300019401143018470470A460021018C4FF660
:10344000F77319401143018470470A460021018C2B
:103450004FF6DF7319404FF6FF7303EA0213194367
:10346000018470470A460021018C4FF67F73194092
:103470004FF6FF7303EA02131943018470470A46AB
:103480000021018C4FF6FF5319404FF6FF7303EAFA
:1034900002231943018470470A460021018C4FF230
:1034A000FF7319404FF6FF7303EA022319430184A7
:1034B00070470A460021018C4DF6FF7319404FF604
:1034C000FF7303EA023319430184704730B50023C8
:1034D00001248C40A3B2048C9C430484048C02FA23
:1034E00001F5ADB22C43048430BD30B50023042473
:1034F0008C40A3B2048C9C430484048C02FA01F532
:10350000ADB22C43048430BD828B4FF2FF331A409E
:103510008283828B4FF6FF7303EA01231A4382836F
:103520007047F0B50C461546002100220026078C96
:103530004EF6FF7C07EA0C070784818B028C4FF65E
:10354000FF7707EA043640F6FF4739404FF6FF772A
:1035500007EA052739434FF6FF7707EA0337394370
:1035600045F6FF773A4046F480573A438183028418
:10357000F0BD828B4FF6F3731A408283828B0A432D
:1035800082837047F0B50C461546002100220026C4
:10359000078C4FF6FF6C07EA0C070784818B028CBF
:1035A0004FF6FF7707EA04264FF60C7739404FF6BF
:1035B000FF7707EA03172F4339434FF2FF573A408B
:1035C00046F480773A4381830284F0BD028B4FF248
:1035D000FF331A400283028B4FF6FF7303EA012385
:1035E0001A4302837047F0B50C46154600210022AD
:1035F0000026078C4FF6EF7C07EA0C070784018B47
:10360000028C4FF6FF7707EA041640F6FF47394071
:103610004FF6FF7707EA033739434FF6FF7703E0AA
:10362000000001400004014007EA052739434FF636
:103630005F773A4046F010073A4301830284F0BDB9
:10364000028B4FF6F3731A400283028B0A43028304
:103650007047F0B50C46154600210022068C4FF647
:10366000FE773E400684018B028C4FF60C7631408B
:103670007E1C06EA03162E4331434FF6F5763240A0
:1036800044F00106324301830284F0BD70B5054663
:103690000C46208850B92389A28861882846FFF704
:1036A000D8FFE1882846FFF7CBFF25E020880428D3
:1036B0000AD12389A28861882846FFF794FFE18810
:1036C0002846FFF783FF17E0208808280AD12389BE
:1036D000A28861882846FFF755FFE1882846FFF752
:1036E00048FF09E02389A28861882846FFF719FF6F
:1036F000E1882846FFF708FF70BD00210180418066
:10370000012181800021C180018170472DE9F041B4
:1037100005460C4600260127608808B9022600E00D
:103720000026A088012801D1022700E00127208877
:10373000A0B92389A28861882846FFF78AFFE1881B
:103740002846FFF77DFF23893A4631462846FFF792
:103750004AFFE1882846FFF739FF13E02389A28852
:1037600061882846FFF73FFFE1882846FFF72EFFD4
:1037700023893A4631462846FFF76BFFE188284601
:10378000FFF75EFFBDE8F0810146486B70470146D8
:10379000886B70470146C86B70470146086C7047DC
:1037A0000A884B881A438B881A43CB881A430B89A3
:1037B0001A434B891A438B891A43A0F84420704757
:1037C0000021018041808180C1800181418181810E
:1037D000704731B1B0F8442042F40042A0F84420D0
:1037E00005E0B0F84420C2F30E02A0F84420704770
:1037F00021B1828842F00402828004E082884FF680
:10380000FB731A408280704721B1828842F0010226
:10381000828004E082884FF6FE731A4082807047EF
:103820001AB183890B43838102E083898B438381AF
:1038300070478182704702460020138A0B400BB10B
:10384000012000E000207047CA430282704730B573
:103850000246002000230024158A05EA0103958909
:1038600005EA010413B10CB1012000E0002030BDD5
:10387000CA430282704741EA0203A0F84830704709
:103880001AB183890B43838102E083898B4383814F
:10389000704721B1828842F00802828004E0828869
:1038A0004FF6F7731A408280704701894FF6F8721D
:1038B0001140018170470A46002101894FF68F733C
:1038C000194011430181704730B504460D46294621
:1038D0002046FFF7F0FF208940F00700208130BD2F
:1038E0002DE9F04104460D4616461F46602D06D1CF
:1038F0003B46012231462046FFF775FE05E03B4678
:10390000012231462046FFF7A4FE29462046FFF754
:10391000D2FF208940F007002081BDE8F08130B55A
:103920000C4600210189C9B24FF6FF7505EA03254F
:10393000154325432943018130BD2DE9F04105465A
:103940000E4617469846002443463A4631462846D6
:10395000FFF7E5FF2C894FF6F870044044F00704A8
:103960004FF68F70044044F070042C81BDE8F08164
:10397000F0B504460D4616461F463B4632462946DC
:103980002046FFF7CCFF208940F480402081F0BD25
:1039900082884FF68F731A40828082880A43828021
:1039A000704702894FF6F8731A40028102890A4370
:1039B0000281704702894FF67F731A4002810289A3
:1039C0000A4302817047F0B50C4615461E46002199
:1039D000002200230189028B038C4FF6F8773940CF
:1039E00021434FF6FC473A4040F201173A434FF665
:1039F000DD773B404FF6FF7707EA06172F433B433F
:103A0000018102830384F0BD21B1828842F08002EB
:103A1000828004E082884FF67F731A40828070476C
:103A2000A0F850107047000010B50446FA488442D0
:103A300008D101211020FFF700F900211020FFF725
:103A4000FCF857E0F548844209D101214804FFF70A
:103A5000E3F800214FF40030FFF7DEF84AE0F048C9
:103A6000844209D101218804FFF7D6F800214FF4E0
:103A70008020FFF7D1F83DE0EA48844209D10121D6
:103A8000C804FFF7C9F800214FF40020FFF7C4F87D
:103A900030E0E548844209D101210805FFF7BCF870
:103AA00000214FF48010FFF7B7F823E0DF4884428D
:103AB00008D101212020FFF7C0F800212020FFF7C6
:103AC000BCF817E0DA48844209D101218807FFF7E2
:103AD000A3F800214FF08040FFF79EF80AE0D54898
:103AE000844207D101214005FFF796F800216005C7
:103AF000FFF792F810BD2DE9FF4705460E4600245A
:103B0000A14600BFA046B08900B100BF2C8A24F4B2
:103B10004054F08804432C82AC8941F20C60844309
:103B2000B08831890843718908430443AC81AC8A69
:103B300024F44074B0890443AC826846FEF7FDFE6D
:103B4000B548854202D0B948854202D1DDF80C90D3
:103B500001E0DDF80890A88900F4004040B109EBCD
:103B6000C90000EB091031684900B0FBF1F707E02C
:103B700009EBC90000EB091031688900B0FBF1F7CF
:103B80006420B7FBF0F004012009642101FB1078E8
:103B9000A88900F4004040B1322000EBC800B0FB1F
:103BA000F1F000F00700044308E0322000EB0810B9
:103BB0006421B0FBF1F000F00F0004432C81BDE85C
:103BC000FF874FF41651016000218180C18001817F
:103BD0000C21418100218181704710B502460020EF
:103BE000108A20F470600B884C8823438C88234310
:103BF000CC8823431843108210BD002101804180EE
:103C00008180C180704721B1828942F40052828153
:103C100004E082894DF6FF731A4082817047028B5F
:103C200002F47F420283028B0A430283704721B170
:103C3000828942F40042828103E08289C2F30E024B
:103C40008281704721B1828A42F40062828204E05C
:103C5000828A4FF2FF731A4082827047C1F30802D2
:103C60008280704701468888C0F308007047028A46
:103C70004FF6F0731A400282028A0A4302827047AA
:103C800021B1828942F00202828104E082894FF6EA
:103C9000FD731A408281704782894FF2FF731A4088
:103CA000828182890A4382817047028A4FF6DF73DC
:103CB0001A400282028A0A430282704721B1028AB4
:103CC00042F48042028204E0028A4BF6FF731A40FB
:103CD00002827047818941F001018181704721B1E1
:103CE000828A42F00802828204E0828A4FF6F773E9
:103CF0001A4082827047028BD2B20283028B42EA60
:103D000001220283704721B1828A42F0200282821E
:103D100004E0828A4FF6DF731A408282704721B135
:103D2000828A42F01002828204E0828A4FF6EF73A8
:103D30001A4082827047828A4FF6FB731A40828251
:103D4000828A0A438282704721B1828A42F002024B
:103D5000828204E0828A4FF6FD731A4082827047A5
:103D60001AB1838A0B43838202E0838A8B43838266
:103D70007047F0B50346002400260025002040F6D9
:103D80006A17B94200D100BF1846C1F3421401F0CE
:103D90001F06012707FA06F5012C01D10C3004E0BB
:103DA000022C01D1103000E014301AB107682F4303
:103DB000076002E00768AF430760F0BD02460020DD
:103DC000B1F5007F00D100BF13880B400BB101207B
:103DD00000E00020704701F40072B2F5007F00D1CE
:103DE00000BFCA430280704770B50246002400231A
:103DF0000025002040F66A16B14200D100BFC1F391
:103E0000421501F01F03012606FA03F3012D13D119
:103E10009689334017E00000001001400044004044
:103E200000480040004C0040005000400014014099
:103E300000780040007C0040022D02D1168A3340F9
:103E400001E0968A33400C12012606FA04F4168823
:103E5000344013B10CB1012000E0002070BD10B55A
:103E60000022002340F66A14A14200D100BF0A12CA
:103E700001249440A3B2DC43048010BD10B5044675
:103E80006FF00400FDF77EFFE11704EB5171C1F301
:103E9000C701394A11701046007800EB4001C1EBB0
:103EA000C0104FF6FF7101EAC0003449088010BD10
:103EB0000146314A12784A434FF0E0235A6100220A
:103EC0009A611A46126942F001021A6100BF4FF06E
:103ED000E022106900F001021AB100F48032002AD9
:103EE000F5D04FF0E022126922F001024FF0E023FA
:103EF0001A6100229A6170470146204A12884A439B
:103F00004FF0E0235A6100229A611A46126942F08A
:103F100001021A6100BF4FF0E022106900F00102B7
:103F20001AB100F48032002AF5D04FF0E022126975
:103F300022F001024FF0E0231A6100229A617047DB
:103F400070B504464FF4077094FBF0F0C6B24FF41E
:103F5000077094FBF0F100FB114085B205E04FF4CF
:103F60000770FFF7C9FF701EC6B2002EF7D115B15A
:103F70002846FFF7C1FF70BD9C0000209E00002076
:103F800010B588B0044601210846FEF7A7FD0121BF
:103F90001020FEF7FDFD07220921FD48FEF76BFB0F
:103FA00007220A21FA48FEF766FB4FF4C06006902C
:103FB00002208DF81C008DF81D0000208DF81E00D9
:103FC00001208DF81F0006A9F148FEF7C9FA0294F6
:103FD0000020ADF80C00ADF80E00ADF81000ADF803
:103FE00014000C20ADF8120002A9EA48FFF783FD87
:103FF000012240F22551E748FFF7BBFE012240F2C3
:104000002441E448FFF7B5FE25208DF80400032085
:104010008DF805008DF8060001208DF8070001A835
:10402000FDF763FE0121DB48FFF7EDFD08B010BD91
:1040300010B588B0044601210820FEF74FFD01218C
:104040004804FEF794FD07220521D348FEF713FB31
:1040500007220621D048FEF70EFB602006900220C2
:104060008DF81C008DF81D0000208DF81E00012029
:104070008DF81F0006A9C848FEF772FA02940020C6
:10408000ADF80C00ADF80E00ADF81000ADF814005E
:104090000C20ADF8120002A9C048FFF72CFD012248
:1040A00040F22551BD48FFF764FE012240F2244151
:1040B000BA48FFF75EFE26208DF8040003208DF835
:1040C00005008DF8060001208DF8070001A8FDF716
:1040D0000CFE0121B148FFF796FD08B010BD10B5E8
:1040E00088B0044601210420FEF7F8FC0121880471
:1040F000FEF73DFD07220A21A948FEF7BCFA072278
:104100000B21A748FEF7B7FA4FF440600690022053
:104110008DF81C008DF81D0000208DF81E00012078
:104120008DF81F0006A99E48FEF71AFA0294002097
:10413000ADF80C00ADF80E00ADF81000ADF81400AD
:104140000C20ADF8120002A99648FFF7D4FC2720F6
:104150008DF8040003208DF805008DF8060001207D
:104160008DF8070001A8FDF7C0FD012240F225519E
:104170008C48FFF7FEFD012240F224418948FFF7F9
:10418000F8FD01218748FFF73EFD08B010BD10B5CE
:104190008AB0044601210846FEF7A0FC0121C804AC
:1041A000FEF7E5FC082200217948FEF764FA0822B0
:1041B00001217748FEF75FFA0320089002208DF86E
:1041C00024008DF8250000208DF8260001208DF8B0
:1041D000270008A96E48FEF7C3F904940020ADF843
:1041E0001400ADF81600ADF81800ADF81C000C2056
:1041F000ADF81A0004A96C48FFF77DFC0020ADF86B
:104200000800ADF80A004FF40070ADF80C00002073
:10421000ADF80E0002A96448FFF7DFFC34208DF8EA
:10422000040003208DF805008DF8060001208DF8AC
:10423000070001A8FDF759FD012240F225515A4817
:10424000FFF797FD012240F224415748FFF791FD07
:1042500001215548FFF7D7FC0AB010BD10B588B052
:10426000044601210420FEF739FC01212020FEF73D
:104270008FFC082206214A48FEF7FDF90822072193
:104280004748FEF7F8F9C020069002208DF81C0080
:104290008DF81D0000208DF81E0001208DF81F00F4
:1042A00006A93F48FEF75CF902940020ADF80C0027
:1042B000ADF80E00ADF81000ADF814000C20ADF80C
:1042C000120002A93948FFF716FC012240F22551DD
:1042D0003648FFF74EFD012240F224413348FFF7F4
:1042E00048FD47208DF8040003208DF805008DF867
:1042F000060001208DF8070001A8FDF7F6FC01215A
:104300002A48FFF780FC08B010BD70B505460E4680
:10431000002400BF0CE0295D1E48FFF79FFC00BF92
:1043200080211C48FFF74AFD0028F9D0601C84B2A8
:10433000B442F0DB70BD70B505460E46002400BFE8
:104340000CE0295D1548FFF789FC00BF8021134868
:10435000FFF734FD0028F9D0601C84B2B442F0DBD2
:1043600070BD70B505460E46002400BF0CE0295D07
:104370000C48FFF773FC00BF80210A48FFF71EFDC1
:104380000028F9D0601C84B2B442F0DB70BD00009C
:104390000000024000100140000C024000440040B8
:1043A0000008024000480040004C0040001401405A
:1043B00070B505460E46002400BF0CE0295DFE489E
:1043C000FFF74CFC00BF8021FB48FFF7F7FC0028FB
:1043D000F9D0601C84B2B442F0DB70BD70B5054604
:1043E0000E46002400BF0CE0295DF448FFF736FCC0
:1043F00000BF8021F148FFF7E1FC0028F9D0601CE4
:10440000C4B2B442F0DB70BD10B540F22551EC48A7
:10441000FFF7EAFCA8B1EA48FFF724FCC4B2E94878
:104420000088C0F30E00E8490C54E6480088401CA0
:10443000E449088008460088322820DB00200880F4
:104440001DE040F22441DE48FFF7CEFCB8B1002069
:10445000DB490888888800BFDB490978A0290AD190
:10446000D9494978A02906D1D649098841F40041A3
:10447000D44A118002E00021D24A118000BF10BD51
:1044800010B540F22551D148FFF7AEFCA8B1CF4896
:10449000FFF7E8FBC4B2CE480088C0F30E00CD4958
:1044A0000C54CB480088401CC94908800846008845
:1044B000322815DB0020088012E040F22441C34876
:1044C000FFF792FC60B10020C0490888091D0888E8
:1044D00000BFBF49098841F40041BD4A118000BFB7
:1044E00010BD2DE9F0438BB040F22551BA48FFF7DB
:1044F0007BFC78B3B848FFF7B5FBC7B2B748007884
:10450000012809D1B648B74909884754B5480088F9
:10451000401CB44908803EE2B348007880B90120CD
:10452000B24908700020B2490880AE480088C0F344
:104530000E00B0490F54AB480088401CA9490880C0
:10454000A848008841F296218842E4DD0020A54970
:10455000088020E2FFE740F224419F48FFF744FC37
:104560000028D8D000240025A04600269A480488B8
:10457000001D048800BF99480078012872D198482E
:10458000007861280BD197480088012807D10020C6
:1045900094490880012198A0FFF7E3FEFAE19048D2
:1045A00000782B2813D18E4840786F280FD18C4883
:1045B00080786B280BD18B480088032807D1002016
:1045C0008849088007218DA0FFF7CBFEE2E18448EF
:1045D00080782B2829D18248C0784F2825D180485F
:1045E00000794B2821D17E4840793D281DD17D4856
:1045F0000088142819D100207A490880082181A058
:10460000FFF7AFFE062400250CE07549081909AA3A
:104610007FA100F0FBFB7F4909984855A01C84B29C
:10462000681C85B2122CF0DBB4E16D4880782B2831
:10463000B4D16B48C0784F28B0D1694800794B2875
:10464000ACD1674840793D28A8D166480088282821
:10465000A4DD00206349088008216FA0FFF781FED8
:10466000002408E07CE05E48005D2C2801D1A046D3
:1046700003E0601C84B2142CF5DB00BF08F10100DC
:1046800084B2002565E05648005D2E280AD05448C3
:10469000005D2C2806D05248005D30380AA94855E4
:1046A000681C85B24E48005D2E2826D1032D10D1FE
:1046B0009DF82800642110FB01F09DF8291001EB02
:1046C000810100EB41009DF82A10084455498855A6
:1046D00010E0022D0AD19DF829009DF8281001EB69
:1046E000810100EB41004F49885503E09DF8280007
:1046F0004C4988550025701C86B23948005D2C282D
:1047000025D1032D10D19DF82800642110FB01F064
:104710009DF8291001EB810100EB41009DF82A1062
:1047200008444049885510E0022D0AD19DF829001F
:104730009DF8281001EB810100EB410039498855B3
:1047400003E09DF8280037498855002503E0601CE8
:1047500084B2342C97DB00BF00202049087019E197
:1047600024480078A02877D122484078A02873D127
:1047700020488078F3287FD11A48008841F296219A
:1047800088426FD100201949087019490880062213
:1047900020491848401D00F0FDFB58B91148008819
:1047A00040F400400F4908801F48007818B90120E4
:1047B0001D493BE052E03BE0004C0040001401404A
:1047C00000100140A0000020F840002000440040FC
:1047D000A20000202A4100200048004010000020D4
:1047E00056540020A40000201E0000201B000020C2
:1047F0001C0000205C4100206100000041542B4D52
:1048000041430D0041542B57414E4E0D0000000016
:10481000253258001100002041542B454E544D0DB7
:1048200000000000170000204E0000200870B1E0DA
:104830009748407818B9012095494870AAE00FF2CE
:10484000542913214846FFF78CFD00209649088023
:104850000120964908709DE00EE003E00020924997
:10486000088097E09048008841F296218842DEDD7A
:1048700000208D4908808DE08D480078A02838D12F
:104880008B484078A02834D189488078F02830D1EE
:104890000020884908708849088006228749844892
:1048A000401D00F077FB00BB7F48008840F40040CB
:1048B0007D4908807648007818B90120744908704D
:1048C00068E07348407818B901207149487061E088
:1048D0000FF2EC1912214846FFF743FD0020724900
:1048E000088001207149087054E000206E4908805A
:1048F00050E06F480078022826D16D4840780228A1
:1049000022D16B48807802281ED16748008803288E
:104910001AD120226FA101A800F0ADFB6748016801
:10492000CDF816108088ADF81A007248006807901C
:10493000002060490870604908805B4908801C219C
:1049400001A8FFF70EFD25E059480078A0281ED1E8
:1049500057484078A0281AD155488078E32816D1C6
:104960000020544908705449088006225349504891
:10497000401D00F00FFB30B94B48008840F4004068
:104980004949088006E000204749088002E00020ED
:104990004549088000BF0BB0BDE8F08310B540F278
:1049A00025515548FFF720FAA8B15348FFF75AF9A7
:1049B000C4B252480088C0F30E0051490C544F480D
:1049C0000088401C4D49088008460088322821DBB9
:1049D000002008801EE040F224414748FFF704FA17
:1049E000C0B1002044490888091D088800BF444917
:1049F0000978A0290AD142494978A02906D13F491E
:104A0000098841F400413D4A118002E000213B4AFF
:104A1000118000BF10BD10B540F225513948FFF795
:104A2000E3F9A8B13748FFF71DF9C4B2364800884A
:104A3000C0F30E0035490C5433480088401C3249FD
:104A4000088008460088322821DB002008801EE00C
:104A500040F224412B48FFF7C7F9C0B10020294993
:104A60000888091D088800BF28490978A0290AD1AB
:104A700026494978A02906D12349098841F40041F3
:104A8000214A118002E000211F4A118000BF10BDA1
:104A90004E0000206368616E6E656C206973206251
:104AA0007573792E2E2E2E00A40000201E000020EB
:104AB0005C4100201B0000201C0000201100002091
:104AC0006368616E6E656C20697320627573792E00
:104AD0002E2E0000636F6E6E656374206973206F05
:104AE0006B2E2E2E2E2E3132333435363738393068
:104AF0003131000017000020004C0040A6000020CB
:104B0000F253002000140140A8000020245400208B
:104B10007FB505460C4601212020FEF728F80195B7
:104B2000ADF800400020ADF80800ADF8020069467D
:104B30000D48FEF7D4F937208DF80C0002208DF8CF
:104B40000D008DF80E0001208DF80F0003A8FDF771
:104B5000CCF8012211460448FEF762FE012102480A
:104B6000FEF746FA7FBD0000001400400146002019
:104B70009B4A914203D2B1F1006F00D350E0994AB1
:104B8000914204D2964A914201D3082048E0964AC5
:104B9000914204D2934A914201D3102040E0934ABB
:104BA000914204D2904A914201D3182038E0904AB1
:104BB000914204D28D4A914201D3202030E08D4AA7
:104BC000914204D28A4A914201D3282028E08A4A9D
:104BD000914204D2874A914201D3302020E0874A93
:104BE000914204D2844A914201D3382018E0844A89
:104BF000914204D2814A914201D3402010E0814A7F
:104C0000914204D27E4A914201D3482008E07E4A74
:104C1000914204D27B4A914201D3502000E05820B7
:104C2000704710B50446FDF709F9F320FDF707FCBE
:104C300002212046FDF756F9092801D000BFFEE702
:104C4000FDF709F910BD2DE9F04705460E46174658
:104C5000FDF7F4F8F320FDF7F2FB2846FFF786FF97
:104C60008046042101FB0650FFF780FF8146444641
:104C70000AE002212046FDF735F9092801D000BFDE
:104C8000FEE704F1080084B24C45F2DB00240CE09E
:104C900057F824102846FDF73EFA092801D12D1DAA
:104CA00001E000BFFEE7601C84B2B442F0DBFDF718
:104CB000D2F8BDE8F08710B50B46002105E0046886
:104CC00042F82140001D4C1CE1B29942F7DB10BDB7
:104CD0002DE9F04705460E461746FDF7AFF8F320DD
:104CE000FDF7ADFB2846FFF741FF8046022101FB9F
:104CF0000650FFF73BFF814644460AE0022120466A
:104D0000FDF7F0F8092801D000BFFEE704F1080024
:104D100084B24C45F2DB00240DE037F8140081B278
:104D20002846FDF721FA092801D1AD1C01E000BF9A
:104D3000FEE7601C84B2B442EFDBFDF78CF8BDE8FF
:104D4000F08710B50B46002105E0048822F81140D9
:104D5000801C4C1CE1B29942F7DB10BD2DE9F047F5
:104D600005460E461746FDF769F8F320FDF767FB89
:104D70002846FFF7FBFE8046A819FFF7F7FE81469D
:104D800044460AE002212046FDF7ACF8092801D08C
:104D900000BFFEE704F1080084B24C45F2DB0024BA
:104DA0000BE0395D2846FDF70FFA092801D16D1C8B
:104DB00001E000BFFEE7601C84B2B442F1DBFDF706
:104DC0004AF8BDE8F08710B50B46002104E00478EE
:104DD0005454401C4C1CE1B29942F8DB10BD000059
:104DE000004000080080000800C000080000010822
:104DF000000002080000040800000608000008087F
:104E000000000A0800000C0800000E080FB400B5EE
:104E10008DB010A9099000910B904FF0FF300A90CF
:104E200000200C90064878440690064878446A466C
:104E300007900F9909A800F089F90DB05DF814FBEF
:104E4000430300005B0300002DE9FF5F1D464FF0A8
:104E5000FF3B91464FF000085F46D5E90146A9693E
:104E600001987F1C8847296A824688470028F6D126
:104E7000BAF1FF3F0CD0002E24F4C06419DD6006A7
:104E800014D5BAF12B0F09D0BAF12D0F0ED103E0D2
:104E9000584604B0BDE8F09F44F48064A9690198C5
:104EA0007F1C8847761E8246002E02DDBAF1300F45
:104EB00003D0B9F1000F26D032E0A969761E01981F
:104EC0007F1C44F400748847002E824605DDBAF149
:104ED000780F06D0BAF1580F03D0B9F1000F10D0F7
:104EE0001EE0B9F1000F02D0B9F1100F18D1A96975
:104EF000761E01987F1C24F4007488478246102097
:104F000002E0082000E00A20814609E0A96908FBC8
:104F10000908761E01987F1C44F400748847824675
:104F2000002E05DD4946504600F0FCF80028EDDA79
:104F3000E96901988847A00502D46FF00100A8E74D
:104F4000E00725D1600613D5600502D5C8F1000041
:104F500000E0404629680A1D2A600968220501D53B
:104F6000087015E0220701D5088011E008600FE005
:104F70002868011D29600068210502D580F800809D
:104F800006E0210702D5A0F8008001E0C0F800800B
:104F900038467EE740EA010310B59B070FD1042A8B
:104FA0000DD310C808C9121F9C42F8D020BA19BAF4
:104FB000884201D9012010BD4FF0FF3010BD1AB159
:104FC000D30703D0521C07E0002010BD10F8013BAE
:104FD00011F8014B1B1B07D110F8013B11F8014BD5
:104FE0001B1B01D1921EF1D1184610BD032A40F2BD
:104FF000308010F0030C00F0158011F8013BBCF17B
:10500000020F624498BF11F801CB00F8013B38BF92
:1050100011F8013BA2F1040298BF00F801CB38BFA0
:1050200000F8013B11F0030300F02580083AC0F0BE
:10503000088051F8043B083A51F804CBA0E8081066
:10504000F5E7121D5CBF51F8043B40F8043BAFF399
:105050000080D20724BF11F8013B11F801CB48BFF3
:1050600011F8012B24BF00F8013B00F801CB48BF29
:1050700000F8012B704710B5203AC0F00B80B1E862
:105080001850203AA0E81850B1E81850A0E818507D
:10509000BFF4F5AF5FEA027C24BFB1E81850A0E886
:1050A000185044BF18C918C0BDE810405FEA827CA0
:1050B00024BF51F8043B40F8043B08BF7047D207B7
:1050C00028BF31F8023B48BF11F8012B28BF20F858
:1050D000023B48BF00F8012B70474FF00002042943
:1050E000C0F0128010F0030C00F06280CCF1040CD0
:1050F000BCF1020F18BF00F8012BA8BF20F8022B4B
:10510000A1EB0C0100F054B85FEAC17C24BF00F8A9
:10511000012B00F8012B48BF00F8012B70477047A6
:10512000704770473A2800D2303820F02002412AD8
:1051300001D3A2F13700884201D34FF0FF3070470E
:10514000026811441378016018467047D160054920
:105150007944516104497944116200211161114679
:1051600000F054B8EDFFFFFFA1000000426842B11B
:10517000016811F8013B23B1521EC0E90012184624
:1051800070470121C160881E704742685AB1C368E8
:10519000016843B983688B4205D0491E521CC0E99F
:1051A0000012002070474FF0FF3070474FF00002B0
:1051B00000B5134694469646203922BFA0E80C500D
:1051C000A0E80C50B1F12001BFF4F7AF090728BFE8
:1051D000A0E80C5048BF0CC05DF804EB890028BF64
:1051E00040F8042B08BF704748BF20F8022B11F08D
:1051F000804F18BF00F8012B704710B5044600F02F
:10520000E5F90068005D00F0010010BD2DE9F34FE5
:105210004FF0000A0C4656468DB001200C9001F16B
:105220000C000B9062690B9801219047051E2DD050
:10523000252D2CD0216A8847C0B162690B980121C5
:105240009047216A88470028F7D16269411E0B9870
:10525000904700E0761CA1690D988847216A88472D
:105260000028F7D1E1690D988847DBE7A1690D981F
:105270008847A842074601D1761CD3E7E1690D981B
:1052800088477F1C02D1BAF1000F6FD06BE16269D1
:105290000B9800273D46394690472A2804D1626979
:1052A0000B98012190470125DFF8D08262690B98A5
:1052B00001219047A0F130010A290AD24745E5DCD7
:1052C00007EB870100EB4107303FDFD445F01005C5
:1052D000ECE7E90601D46FF000476C280AD04C28AF
:1052E00014D0682815D06A280DD074281CD07A28CC
:1052F0001AD01DE062690B98012190476C2802D0FA
:1053000045F0040514E045F002050DE045F02005E8
:105310000AE062690B9801219047682802D045F0A5
:10532000080505E045F4006562690B980121904786
:10533000C4E9015765283DD019DC58287AD00CDC27
:10534000452837D004DC252826D041289ED131E0DD
:1053500046282FD0472899D12CE05B2877D06128A8
:1053600028D063287CD0642823D15AE0F6E06F2847
:1053700048D008DC66281DD067281BD0692821D0BA
:105380006E2816D127E0702845D0732868D075287C
:1053900047D078280DD14DE0A1690D988847252880
:1053A00005463FF469AFE1690D9888476D1C3FF4ED
:1053B0006AAFD8E00D9923466A466FF00100AFF35B
:1053C0000080C5E045F0400023464FF000026060D9
:1053D000A80736D43EE0E8077FF447AF2068011DF8
:1053E00021600068290501D506701BE7290701D552
:1053F000068017E7A90703D5F117C0E9006111E797
:1054000006600FE745F0400023464FF00802606059
:10541000A80716D41EE040F60E0125EA01006060E0
:1054200016E045F0400023464FF00A026060A807EE
:1054300007D40FE045F040006060A80708D5234678
:1054400010220D996FF00100AFF3008080E007E0BB
:10545000102223460D996FF00100FFF7F5FC77E06D
:105460004FF0000963284F46C8464B46CB4602D052
:105470005B2806D038E0E80601D40120A0600127AF
:1054800032E06269D4F80CB00B98012190475E2895
:1054900007D14FF0010949466269D4F80CB00B9866
:1054A0009047216939B900210A4603AB43F821200E
:1054B000491C0829FADBD8B3216949B308F101086E
:1054C00062690B98012190475D28F4D1B9F1000F72
:1054D00009D0002003A951F82020D24341F8202010
:1054E000401C0828F7DB03AB2069002820794FEA2D
:1054F00040701ED05B462246CDF80080CDE9019772
:105500000D9900286FF0010020DAAFF300801FE052
:10551000C11703AA00EBD1614B1121F01F0102EB6F
:105520008302411A13680120884003431360C7E7D0
:1055300019E00D99224600286FF00100009702DA69
:10554000AFF3008004E0AFF3008001E0AFF3008030
:1055500000280ADA401C06D10C9820B14FF0FF3029
:105560000FB0BDE8F08F5046FAE7E90701D10AF124
:10557000010A064400200C9054E60000CCCCCC0C70
:10558000754600F035F8AE4605006946534620F0F2
:105590000700854618B020B5FCF790FBBDE8204019
:1055A0004FF000064FF000074FF000084FF0000BDF
:1055B00021F00701AC46ACE8C009ACE8C009ACE892
:1055C000C009ACE8C0098D467047000010B500F076
:1055D00013F8001D10BD00BFB900000010B504464F
:1055E000AFF300802046BDE81040FAF71FBE000070
:1055F00000487047745400200048704794540020BD
:105600004FF0013C50F8042B51F8043B9A4221D151
:10561000A2EB0C03934313EACC1317D150F8042BDD
:1056200051F8043B9A4215D1A2EB0C03934313EAC1
:10563000CC130BD150F8042B51F8043B9A4209D1FA
:10564000A2EB0C03934313EACC13DBD04FF0000022
:10565000704700BFD01A01BAB1FA81F101F0180108
:1056600022FA01F0CB40C1F12001DBB2C0B2C01A76
:105670002CFA01F3D11A914311EAC311E6D1704714
:1056800001491820ABBEFEE726000200704700006B
:1056900010B500290AD00878002807D005487844BA
:1056A000FFF7AEFF002801D0002010BD024878446B
:1056B00010BD0000920000008A0000004FF0407012
:1056C000E1EE100A7047000041542B4D41430D009C
:1056D00041542B454E544D0D000000002B2B2B0048
:1056E0007374617274207570646174652074726182
:1056F0006E736D69742E2E2E2E000000757064611D
:105700007465207374617475733A00006100000061
:105710004058000800000020AC000000C401000850
:10572000EC580008AC0000202C5A0000E0010008F2
:105730001001000043000000F8FFFFFF0040404060
:105740004040404040404141414141404040404054
:105750004040404040404040404040404005020200
:1057600002020202020202020202020202202020BF
:10577000202020202020200202020202020290901B
:105780009090909010101010101010101010101019
:10579000101010101010101002020202020288886D
:1057A0008888888808080808080808080808080879
:1057B0000808080808080808020202024000000061
:1057C00000000000000000000000000000000000D9
:1057D00000000000000000000000000000000000C9
:1057E00000000000000000000000000000000000B9
:1057F00000000000000000000000000000000000A9
:105800000000000000000000000000000000000098
:105810000000000000000000000000000000000088
:105820000000000000000000000000000000000078
:105830000000000000000000000000000000000068
:1058400000000000000000000000000000007017D1
:105850000000000000000000000000000000000048
:105860000000000000000000000000000000000038
:105870000000000000000000000000000000000028
:105880000000000000000000000000000000000018
:1058900000000000A0A000070000000000000000C1
:1058A000E0560008FC560008DC5600080C570008BB
:1058B000C8560008D0560008007A030A000000000D
:1058C00000000000010203040607080900000000B0
:1058D0000102030401020304060708090000000096
:0C58E000000000000000000000000000BC
:040000050800018965
:00000001FF
